:100000000C942B1A0C94551A0C94551A0C94551ADE
:100010000C94551A0C94551A0C94551A0C94551AA4
:100020000C94551A0C94F1B20C94551A0C94551A60
:100030000C94551A0C948D9B0C94551A0C94551ACB
:100040000C94551A0C9473410C948DBF0C94551A52
:100050000C941B220C9411220C94551A0C94551AD2
:100060000C94551A0C94551A0C94551A0C94551A54
:100070000C94551A0C94551A0C94551A0C94551A44
:100080000C94551A0C94551A0C94551A84892E8880
:100090006588C0896588658865886588658865889C
:1000A00065886588658865886588658865886588E8
:1000B00065886588658865886588658865886588D8
:1000C0006588658865886588BA8965886588658872
:1000D0006588658865886588658893896588658889
:1000E00065886588658865886588658865886588A8
:1000F000D7896288A7ADAAAD9DADA1ADC1ADC1AD97
:10010000AEADB2ADB8ADBCADDBB1E0B1E5B1EFB114
:100110001DB21DB2F9B101B209B213B2084AD73B00
:100120003BCE016E84BCBFFDC12F3D6C74319ABDC6
:1001300056833DDA3D00C77F11BED9E4BB4C3E91EA
:100140006BAAAABE000000803F05A84CCDB2D44ED9
:10015000B93836A9020C50B9918688083CA6AAAADB
:100160002ABE000000803F004E414E494E4954597E
:10017000494E46CDCCCC3D0AD7233C17B7D1387772
:10018000CC2B329595E6241FB14F0A000020410088
:1001900000C84200401C4620BCBE4CCA1B0E5AAED2
:1001A000C59D7400407A10F35A00A0724E180900E1
:1001B00010A5D4E80000E87648170000E40B5402CC
:1001C0000000CA9A3B000000E1F505000080969807
:1001D00000000040420F000000A086010000001057
:1001E0002700000000E80300000000640000000099
:1001F000000A00000000000100000000002C76D87A
:1002000088DC674F0823DFC1DFAE59E1B1B796E55F
:10021000E3E453C63AE651997696E8E6C28426EBC3
:10022000898C9B62ED407C6FFCEFBC9C9F40F2BAD6
:10023000A56FA5F490055A2AF75C936B6CF9676D6E
:10024000C11BFCE0E40D47FEF520E6B500D0ED90C3
:100250002E0300943577050080841E080000204E90
:100260000A000000C80C333333330F986E12831129
:1002700041EF8D2114893BE65516CFFEE6DB18D100
:10028000844B381BF77C1D901DA4BBE424203284D2
:10029000725E228100C9F124ECA1E53D27434F4D58
:1002A0004D554E49434154494F4E004452595255C1
:1002B0004E004552524F525300494E464F0045435F
:1002C000484F0047322F47332062616420706172CB
:1002D000616D65746572730A00536C6565702E2ECE
:1002E0002E00206F6620004D424C2047323920708E
:1002F0006F696E742000290A004A206F7574206FA0
:10030000662072616E67652028302D00290A004939
:10031000206F7574206F662072616E6765202830CB
:100320002D004D6573682070726F62696E6720647E
:100330006F6E652E0A005374617274206D65736868
:100340002070726F62696E67207769746820224737
:100350003239205331222066697273742E0A0047A5
:1003600032380A47323920533200686173206E6F89
:1003700020646174612E0A004D65736820426564D3
:10038000204C6576656C696E67200053206F75742C
:10039000206F662072616E67652028302D35292E0A
:1003A0000A004D65736820706F696E742063616E1A
:1003B0006E6F74206265207265736F6C7665640A77
:1003C00000436C69636B20746F20726573756D6593
:1003D0002E2E2E004E6F206D6F76652E00507269A6
:1003E0006E742074696D653A200046696C616D65B4
:1003F0006E7420757365643A200053746174733AA7
:1004000020002C204C6F6E67657374206A6F623A0F
:100410002000546F74616C2074696D653A2000533C
:10042000746174733A20002C204661696C65643AEB
:1004300020002C2046696E69736865643A2000507C
:1004400072696E74733A200053746174733A2000B9
:100450004520436F6F6C696E672E2E2E0045204835
:10046000656174696E672E2E2E006F666600BE028F
:10047000B902B202AB029D0244454255473A004DD3
:1004800031313320530042656420636F6F6C696EB5
:10049000672E2E2E004265642068656174696E6760
:1004A0002E2E2E006F6B0057414E48414F2049338E
:1004B000204F46462E004D4F54494F4E5F4D4F44FE
:1004C000455300544845524D414C5F50524F54459E
:1004D0004354494F4E004155544F5245504F52548A
:1004E0005F53445F53544154555300454D45524763
:1004F000454E43595F504152534552004341534585
:100500005F4C494748545F4252494748544E45530F
:100510005300544F47474C455F4C4947485453009C
:10052000534F4654574152455F504F574552004232
:1005300055494C445F50455243454E54004C455636
:10054000454C494E475F44415441005A5F50524F19
:100550004245004155544F4C4556454C0050524978
:100560004E545F4A4F420050524F4752455353003A
:100570004155544F5245504F52545F54454D5000D1
:10058000564F4C554D455452494300454550524FE6
:100590004D0053455249414C5F584F4E5F584F46AE
:1005A00046004649524D574152455F4E414D453AEE
:1005B0004D61726C696E206275676669782D322EA6
:1005C000302E7820284769746875622920534F556A
:1005D0005243455F434F44455F55524C3A687474EB
:1005E00070733A2F2F6769746875622E636F6D2F71
:1005F0004D61726C696E4669726D776172652F4DDF
:1006000061726C696E2050524F544F434F4C5F568D
:10061000455253494F4E3A312E30204D41434849BF
:100620004E455F545950453A57414E48414F204935
:10063000332045585452554445525F434F554E540C
:100640003A3120555549443A64393064633638614B
:100650002D303761392D343834372D386634332D09
:100660006235336134363361343232640A002F2FFD
:1006700020004D31343520533C696E6465783E204E
:100680006F7574206F662072616E67652028302D4B
:1006900031290A00205400205200416363656C65D3
:1006A000726174696F6E3A2050005741524E494E44
:1006B0004721204C6F77205A204A65726B206D616C
:1006C00079206C65616420746F20756E77616E743B
:1006D0006564207061757365732E0A004F4646008D
:1006E0004F4E00205A00205900580020204D6178BC
:1006F0003A2000205A00205900580020204D696EF1
:100700003A2000536F667420656E6473746F707363
:100710003A200020466C6F773A200050726F746563
:10072000637465642050696E0A00496E76616C6975
:10073000642065787472756465720A0020643A00FA
:1007400020693A0020703A0043290A0061626C6512
:100750006420286D696E2074656D702000436F6C95
:100760006420657874727564657320617265200019
:10077000504944204175746F74756E6520666169D7
:100780006C656421204261642065787472756465CB
:1007900072206E756D6265720A00454550524F4D6C
:1007A000204F4B0A00496E76616C6964206578744D
:1007B00072756465720A006F6B00456E6473746FC6
:1007C0007073202563202563202563202563002086
:1007D0005A3A0020593A0020583A00656E64737402
:1007E0006F7073206869743A20004572726F7220CE
:1007F00077726974696E6720746F20454550524F57
:100800004D210A000F150E1216170E1303021A14AB
:1008100001000E0C190DFF180C04000162757379AC
:100820003A2070617573656420666F7220696E701E
:1008300075740A00627573793A2070617573656426
:1008400020666F7220757365720A00627573793A5B
:100850002070726F63657373696E670A004B494C51
:100860004C2063617573656420627920746F6F201A
:100870006D75636820696E6163746976652074695B
:100880006D65202D2063757272656E7420636F6DC7
:100890006D616E643A2000506C656173652072650D
:1008A000736574005052494E5445522048414C548F
:1008B0004544004B494C4C45442E20005072696E13
:1008C0007465722068616C7465642E206B696C6C51
:1008D00028292063616C6C6564210A00FFFFFFFF1B
:1008E000FFFF3FFFFFFFFFFFFFFFFFFFFFFFFFFFD8
:1008F000FFFE3FFFFFFFFFFFFFFFFFFFFFFFFFFFC9
:10090000FFFCBFFFFFCFFFFFFFFFFFFFFFFFFFFF6A
:10091000FFFD3FFFFFC7FFFFFFFFFFFF861DBD82FB
:1009200008783FFFFFC3FFFCDEC3CDEDB6ED9DEEC3
:10093000FBBA3FFFFFC1FFFB5EDFB5DDB6ED8DEE1D
:10094000FBB03FFFFFC1FFF7DEDF7DBDB61DADEEA3
:10095000187420007FC5FFF7C0C77C7D86DDB5EE2B
:10096000FB64000007C5FFF7DEDF7D7DBEEDB5EE61
:10097000FBA43FFFC0C5FFF7DEDF7DBFBEEDB9EED4
:10098000FBAC7FFFF805FFFB5EDFB5DDBEF5BDEE1E
:100990000BCCFFFFFFC5FFFCDEC3CDEDFFFFFFFF6C
:1009A000FFEFFFFFFFF4FFFFFFFFFFFFFFFFFFFF72
:1009B000FFEFC7FFFFFCFFFFFFFFFFFFFFFFFFFF92
:1009C000FFCF39FFFF1EFFFFFFFFFFFFFFFFFFFF0E
:1009D000FFDE7EFFFE6EFFFFFFFFFFFFFFFFFFFF5B
:1009E000FFDEF8FBFCE67FFFFFFFFFFFFFFFFFFFDF
:1009F000FFBDE035F0377FFFFFFFFFFFFFFFFFFF89
:100A0000FFB9CF36631B1FFFFFFFFFFFFFFFFFFF95
:100A1000FFBBDE1767D99FFFFFFFFFFFFFFFFFFF51
:100A2000FFBB980611CDDFFFFFFFFFFFFFFFFFFFBA
:100A3000FFBBA0F1E0EECFFFFFFFFFFFFFFFFFFFD7
:100A4000FF338DFFFD0E6FFCDEC3CDEDFFFFFFFF1B
:100A5000FF401DEF79F02FFB5EDFB5DD8AF77D16D5
:100A6000825FFDEE7BFFC7F7DEDF7DBDBAE3397243
:100A7000EE8FFD807BFF87F7C0C77C7DBAEB11301E
:100A8000EEF0E120181F17F7DEDF7D7D8AEB55744D
:100A9000EEFE989FCDC673F7DEDF7DBFBAC1457607
:100AA000ECFE367FE4F0FBFB5EDFB5DDBA5D6D1674
:100AB000EDFCE400067E7BFCDEC3CDEDFFFFFFFF17
:100AC000FDF9ECFFE73F79FFFFFFFFFFFFFFFFFFAF
:100AD000FBF3CDFFCFBF7DFFFFFFFFFFFFFFFFFF5A
:100AE000FBF7BE7FDBDF7DFFFFFFFFFFFFFFFFFFA9
:100AF000FBF7BF001DDF3DFFFFFFFFFFFFFFFFFF15
:100B0000FBF7BFC03ECFBDFFFFFFFFFFFFFFFFFFB3
:100B1000FBF7FEFFFEEFBDFFFFFFFFFFFFFFFFFF45
:100B2000F3E7FEFFFFFFBDFFFFFFFFFFFFFFFFFF3C
:100B3000F3EFFEFFFFFFBCFFFFFFFFFFFFFFFFFF25
:100B4000F7EFFDFFFFFFBEFCDEC3CDEDFFFFFFFFB4
:100B5000F7EFFDC38FFFBEFB5EDFB5DDFFFFFFFFDD
:100B6000E7EFF3FFBFCF9EF7DEDF7DBDB46C46231A
:100B7000EFEFEFFFFFE7DEF7C0C77C7DB5D6DAED1C
:100B8000DFEFCFE7FFF3DF77DEDF7D7D8456C26DD9
:100B9000DFEF8FF03FC3DF77DEDF7DBFB5C6DAED75
:100BA0009FEF203FF803DF7B5EDFB5DDB456C62341
:100BB000BFEF478F83F9D97CDEC3CDEDFFFFFFFF89
:100BC000BE6F07FFFEFDC37FFFFFFFFFFFFFFFFFBD
:100BD000BFA73FFFFFFDC77FFFFFFFFFFFFFFFFF37
:100BE0003FCF3FFFFFFCDF7FFFFFFFFFFFFFFFFF68
:100BF0007FE74FEFFFFABF7FFFFFFFFFFFFFFFFE23
:100C00007FF17DFFFFFE3F7FFFFFFFFFFFFFFFFE46
:100C1000FFFE737FFFFEFF3FFFFFFFFFFFFFFFFEB3
:100C2000FFFF73FFFABEFFBFFFFFFFFFFFFFFFFEE7
:100C3000FFFF7FFFFE8EFFBCDEC3CDEDFFFFFFFD9C
:100C4000FFFC7FFFFFFEFFBB5EDFB5DD844231FDB1
:100C5000FFFB3FFCFFF03FB7DEDF7DBDBDDAD7F91C
:100C6000FFE39FE01FC7CF97C0C77C7DA5DAD3FB0A
:100C7000FF8FC007801FF1D7DEDF7D7DB5DAD7FBA0
:100C8000FE3FFFFFFFFFFCD7DEDF7DBF844231F375
:100C9000F9FFFFFFFFFFFE6B5EDFB5DDFFFFFFF734
:100CA000E3FFFFFFFFFFFF6CDEC3CDEDFFFFFFF7AC
:100CB0008FFFFFFFFFFFFF97FFFFFFFFFFFFFFE635
:100CC0007FFFFFFFFFFFFFE7FFFFFFFFFFFFFFE9E2
:100CD000FFFFFFFFFFFFFFF7FFFFFFFF1FFFFFFF0C
:100CE000FFFFFF600000000001FF40000000000067
:100CF000FF8000000000007F83CF00000C303F87A2
:100D0000FF80000C301F867980000C000F8C30C7EC
:100D1000838C30E78C30CFC7CC31F38C30DCECECFB
:100D200033B98C30D86C6C33198C30D06C0C3319CF
:100D30008C30D86C0C33198C30DC6C0E3B198C3039
:100D4000CF7C079F198C30C77C038F1940000000AF
:100D5000000002600000000000061FFFFFFFFFFF11
:100D6000F82020506C616E6E657242756666657221
:100D700042797465733A20002046726565204D659E
:100D80006D6F72793A2000436F6D70696C65643ADB
:100D9000204A616E20323220323031390A00207C04
:100DA00020417574686F723A2050617472796B20BB
:100DB0004F6C626572740A00323031382D30312D3B
:100DC000323000204C617374205570646174656426
:100DD0003A20006275676669782D322E302E780AC7
:100DE000004D61726C696E0020536F66747761729A
:100DF000652052657365740A0020576174636864E6
:100E00006F672052657365740A002042726F776EB7
:100E1000206F75742052657365740A0020457874DC
:100E200065726E616C2052657365740A00506F774D
:100E3000657255700A0073746172740A00656368A4
:100E40006F3A004572726F723A0024F4D43050C386
:100E50008E20C2A24017828B7011127A910D816C84
:100E6000D90AA861E108C7586607615143061E4BBD
:100E70005D05C145A7041A411104093D9803713964
:100E800031034036DB0265339102D4305402802EA8
:100E90001D02632CEE01752AC501B028A0011027A0
:100EA00081018F2564012B244B01E0223401AC2108
:100EB0001F018D200D01801FFC00841EED00971D79
:100EC000DF00B81CD200E61BC600201BBC00641A61
:100ED000B200B219A8000A19A0006A189900D11727
:100EE000910040178B00B516840031167E00B315B3
:100EF00079003A157300C7146F0058146A00EE1396
:100F000066008813630025135E00C7125B006C1235
:100F1000570015125400C111510070114F002111DA
:100F20004B00D61049008D104700461044000210B7
:100F30004200C00F4000800F3E00420F3C00060FF1
:100F40003B00CB0E3800930E37005C0E3500270EA9
:100F50003400F30D3200C10D3100900D3000600DF2
:100F60002E00320D2D00050D2C00D90C2B00AE0CDF
:100F70002900850C29005C0C2700350C27000E0C7D
:100F80002600E80B2400C40B2400A00B23007D0BDB
:100F900023005A0B2100390B2100180B2000F80AFE
:100FA0001F00D90A1E00BB0A1E009D0A1D00800AF0
:100FB0001D00630A1C00470A1B002C0A1B00110AB3
:100FC0001A00F7091A00DD091900C4091900AB0954
:100FD0001900920917007B091800630917004C09D2
:100FE000160036091600200916000A091500F50832
:100FF0001500E0081400CC081400B8081400A40878
:101000001400900813007D0812006B0813005808A4
:1010100012004608120034081100230811001208BB
:10102000110001081100F0071000E0071000D007C0
:101030001000C0071000B0070F00A10710009107B3
:101040000E0083070F0074070F0065070E00570797
:101050000E0049070E003B070D002E070E0020076B
:101060000D0013070D0006070D00F9060C00ED0634
:101070000D00E0060C00D4060C00C8060C00BC06EF
:101080000C00B0060C00A4060B0099060C008D069F
:101090000B0082060B0077060B006C060B00610646
:1010A0000A0057060B004C060A0042060A003806E2
:1010B0000A002E060A0024060A001A060A00100674
:1010C000090007060A00FD050900F4050900EB0503
:1010D0000900E2050900D9050900D0050900C70586
:1010E0000900BE050900B5050800AD050800A50505
:1010F00009009C050800940508008C05080084057B
:1011000008007C050800740508006C0507006505EB
:1011100008005D050700560508004E050700470555
:1011200007004005080038050700310507002A05BB
:101130000700230507001C050600160507000F051C
:1011400007000805060002050700FB040600F50479
:101150000700EE040600E8040600E2040700DB04D2
:101160000600D5040600CF040600C9040600C30427
:101170000600BD040600B7040600B1040500AC0477
:101180000600A6040600A00405009B0406009504C2
:101190000500900406008A0405008504050080040B
:1011A00006007A04050075040500700405006B0450
:1011B000050066040500610405005C040500570491
:1011C0000500520405004D040500480405004304D1
:1011D00005003E0404003A0405003504050030040F
:1011E00004002C04050027040400230405001E0449
:1011F00004001A04040016040500110404000D0480
:101200000400090405000404040000040400FC03B5
:101210000400F8030400F4030400F0030400EC03EA
:101220000400E8030400E4030400E0030400DC031A
:101230000400D8030400D4030400D0030400CC034A
:101240000400C8030300C503030024F404D9201BD1
:10125000C40C5C0E9804C4095F0265077101F405B3
:10126000F900FB04B30048048700C1036900580378
:10127000550003034500BE023A00840231005302C8
:101280002A002902250004022000E4011C00C801F4
:101290001900AF01170098011400840113007101B7
:1012A00010006101100051010E0043010D003601D4
:1012B0000B002B010B0020010B00150109000C0194
:1012C000090003010800FB000800F3000800EB0020
:1012D0000700E4000600DE000600D8000600D20089
:1012E0000600CC000500C7000500C2000500BD00D7
:1012F0000400B9000400B5000400B1000400AD0012
:101300000400A9000400A5000300A20003009F0040
:1013100004009B0003009800030095000200930066
:101320000300900003008D0002008B000300880082
:1013300002008600020084000300810002007F009A
:1013400002007D0002007B000200790002007700AD
:1013500001007600020074000200720001007100BA
:1013600002006F0002006D0001006C0002006A00C4
:1013700001006900020067000100660001006500CD
:1013800001006400020062000100610001006000D1
:1013900001005F0002005D0001005C0001005B00D5
:1013A00001005A00010059000100580001005700D7
:1013B00001005600010055000100540001005300D7
:1013C00000005300010052000100510001005000D4
:1013D00001004F0001004E0000004E0001004D00D2
:1013E00001004C0001004B0000004B0001004A00CE
:1013F00001004900010048000000480001004700CA
:1014000001004600000046000100450000004500C4
:1014100001004400010043000000430001004200BD
:1014200000004200010041000000410001004000B6
:1014300001003F0000003F0001003E0000003E00B0
:1014400001003D0000003D0001003C0000003C00A8
:1014500000003C0001003B0000003B0001003A009E
:1014600000003A0001003900000039000100380096
:10147000000038000000380001003700000037008D
:101480000100360000003600000036000100350083
:101490000000350000003500010034000000340079
:1014A000000034000100330000003300000033006E
:1014B0000100320000003200000032000100310063
:1014C0000000310000003100010030000000300059
:1014D0000000300001002F0000002F0000002F004E
:1014E00000002F0001002E0000002E0000002E0042
:1014F00001002D0000002D0000002D0000002D0037
:1015000001002C0000002C0000002C0000002C002A
:1015100001002B0000002B0000002B0000002B001E
:1015200001002A0000002A0000002A0000002A0012
:101530000100290000002900000029000000290006
:1015400000002900010028000000280000002800F9
:1015500000002800000028000100270000002700EC
:1015600000002700000027000000270001002600DF
:1015700000002600000026000000260000002600D3
:1015800001002500000025000000250000002500C6
:1015900000002500000025000100240000002400B8
:1015A00000002400000024000000240001002300AB
:1015B000000023000000230000002300000023009F
:1015C0000000230000002300010022000000220090
:1015D0000000220000002200000022000000220083
:1015E0000100210000002100000021000000210076
:1015F0000000210000002100000021000100200067
:10160000000020000000200000002000000020005A
:1016100000002000000020000000200001001F004A
:1016200000001F0000001F0000001F0000001F003E
:1016300000001F0000001F0001001E0000001E002F
:1016400000001E0000001E0000003930000033259D
:10165000000087190000B00F0000DB080000BD0487
:101660000000740200003F0100000A4D65617375BF
:1016700072656420706F696E74733A0A004F464653
:101680000A00466164652048656967687420004205
:101690006564204C6576656C696E672000466169FB
:1016A0006C656420746F20656E61626C65204265B4
:1016B00064204C6576656C696E670A004D657368D9
:1016C00020426564204C6576656C20646174613AE3
:1016D0000A00496E76616C6964206D6573682E0A34
:1016E00000206E6F7420656E74657265642E0A004A
:1016F0004D65736820706F696E742063616E6E6FE4
:1017000074206265207265736F6C7665640A004DA3
:1017100034323120696E636F727265637420706158
:1017200072616D657465722075736167650A00008A
:10173000004843000048430000344300000000001C
:1017400000000000000000290A002062797465731F
:101750003B20637263200053657474696E67732065
:1017600053746F726564202800454550524F4D20D8
:101770006461746173697A65206572726F722E0A92
:1017800000290A002062797465733B20637263202C
:10179000002073746F7265642073657474696E677A
:1017A000732072657472696576656420280020284C
:1017B00063616C63756C6174656429210A00202182
:1017C0003D2000454550524F4D20435243206D6906
:1017D000736D61746368202D202873746F72656463
:1017E0002920002053697A653A2000496E646578A3
:1017F0003A2000204D61726C696E3D563633290ADD
:101800000028454550524F4D3D00454550524F4DE3
:101810002076657273696F6E206D69736D61746394
:1018200068200023646566696E652044454641551D
:101830004C545F004B6420004B6920004B7020002B
:10184000504944204175746F74756E652066696EE9
:101850006973686564212050757420746865206C14
:10186000617374204B702C204B6920616E64204B97
:101870006420636F6E7374616E74732066726F6D33
:101880002062656C6F7720696E746F20436F6E669F
:10189000696775726174696F6E2E680A00504944F9
:1018A000204175746F74756E65206661696C65643E
:1018B000212074696D656F75740A004531205448A4
:1018C00045524D414C2052554E41574159004245D9
:1018D0004420544845524D414C2052554E415741A9
:1018E0005900546865726D616C2052756E61776144
:1018F000790045312048656174696E6720666169C9
:101900006C6564004265642068656174696E672077
:101910006661696C65640048656174696E6720661C
:1019200061696C656400504944204175746F747539
:101930006E65206661696C6564212054656D706513
:1019400072617475726520746F6F20686967680AC8
:1019500000204B643A2000204B693A2000204B7055
:101960003A20000A20436C61737369632050494434
:10197000200A002054753A2000204B753A200020A0
:101980006D61783A2000206D696E3A200020643A3B
:10199000200020626961733A20005049442041755B
:1019A000746F74756E652073746172740A005049A7
:1019B00044204175746F74756E65206661696C654D
:1019C00064212054656D7065726174757265207450
:1019D0006F6F20686967680A006265640A002C20DE
:1019E00073797374656D2073746F707065642120F2
:1019F0004865617465725F49443A2000426564201D
:101A000068656174696E67206661696C6564004829
:101A1000656174696E67206661696C656400453153
:101A20002048656174696E67206661696C65640051
:101A300048656174696E67206661696C6564002041
:101A40002D20496E76616C696420657874727564C6
:101A50006572206E756D62657220210A0070012C1E
:101A60000190012701B0012201C0011D01F0011800
:101A7000011002130130020E0160020901900204FC
:101A800001C002FF000003FA004003F5008003F0EC
:101A900000D003EB002004E6007004E100E004DC69
:101AA000004005D700C005D2004006CD00D006C8D2
:101AB000008007C3003008BE00F008B900C009B4B8
:101AC00000B00AAF00B00BAA00D00CA500000EA019
:101AD00000500F9B00C01096005012910000148C13
:101AE00000C0158700B0178200B0197D00D01B78A8
:101AF00000001E730040206E0090226900F02464F4
:101B00000040275F0090295A00E02B5500102E500E
:101B10000020304B0010324600E033410090353C4D
:101B2000001037370070383200A0392D00B03A2845
:101B300000A03B2300603C1E00103D1900903D14A6
:101B400000103E0F00703E0A00C03E0500003F003E
:101B500000403FFBFF803FF6FFC03FF1FF453120D3
:101B6000544845524D414C2052554E415741590021
:101B700042454420544845524D414C2052554E4117
:101B800057415900546865726D616C2052756E61E1
:101B9000776179004531204572723A204D415854A1
:101BA000454D50004572723A204D415854454D50B4
:101BB00020424544004D415854454D5020747269AF
:101BC000676765726564004531204572723A204D41
:101BD000494E54454D50004572723A204D494E547D
:101BE000454D5020424544004D494E54454D5020EE
:101BF00074726967676572656400202F0020424037
:101C00003A0020403A0000004842000048420000EC
:101C1000804000000000556E6B6E6F776E20636F22
:101C20006D6D616E643A20220020746F6F206C6FBE
:101C30006E6720657874727573696F6E2070726557
:101C400076656E7465640A0020636F6C6420657845
:101C500074727573696F6E2070726576656E7465E7
:101C6000640A0020496E76616C696420657874723C
:101C7000756465722000486F6D6520257325732596
:101C800073206669727374002066697273740A0047
:101C90005A0059005800486F6D6520004F66667302
:101CA000657473206170706C696564004572723A86
:101CB00020546F6F206661722100546F6F2066613F
:101CC000722066726F6D207265666572656E6365FF
:101CD00020706F696E740A004361703A00656E711E
:101CE00075657565696E67202200526573656E645F
:101CF0003A200053544F505045442E2000507269F2
:101D00006E7465722073746F70706564206475659D
:101D100020746F206572726F72732E20466978206E
:101D2000746865206572726F7220616E64207573CD
:101D300065204D39393920746F2072657374617272
:101D4000742E202854656D706572617475726520FB
:101D500069732072657365742E20536574206974ED
:101D60002061667465722072657374617274696E45
:101D700067290A004E6F20436865636B73756D2099
:101D800077697468206C696E65206E756D62657226
:101D90002C204C617374204C696E653A2000636896
:101DA00065636B73756D206D69736D617463682C09
:101DB000204C617374204C696E653A20004C696E4A
:101DC00065204E756D626572206973206E6F742098
:101DD0004C617374204C696E65204E756D6265723E
:101DE0002B312C204C617374204C696E653A2000B5
:101DF0004D313130002569730025696D20256973E7
:101E0000002569682025696D2025697300256964AE
:101E1000202569682025696D202569730025697969
:101E200020256964202569682025696D202569734E
:101E3000004572723A207574663820666F6E7420A1
:101E40006E6F7420696E697469616C697A65642E5D
:101E5000004572723A207574663820666F6E742081
:101E60006E6F7420696E697469616C697A65642E3D
:101E70000030484830202020200025753A25303297
:101E80007500253032753A25303275004572723A48
:101E9000207574663820666F6E74206E6F742069CA
:101EA0006E697469616C697A65642E004469736156
:101EB000626C65207374657070657273004D3834A0
:101EC00000426564204C6576656C696E67004175FB
:101ED000746F20686F6D6500473238004D6F76650E
:101EE0002061786973004D61696E005072656865A4
:101EF000617420504C4120426564005072656865F1
:101F0000617420504C4120456E64005072656865D4
:101F1000617420504C410054656D70657261747538
:101F200072650050726568656174204142532045B6
:101F30006E640050726568656174204142532042AE
:101F400065640050726568656174204142530054B5
:101F5000656D706572617475726500507265686553
:101F6000617420414253005072656865617420506D
:101F70004C4100436F6F6C646F776E0046616E205A
:101F800073706565640046616E20737065656400FA
:101F900042656400426564004E6F7A7A6C65004E5B
:101FA0006F7A7A6C65004D61696E00466C6F7700E0
:101FB000466C6F770046616E2073706565640046FD
:101FC000616E2073706565640042656400426564FB
:101FD000004E6F7A7A6C65004E6F7A7A6C650042BB
:101FE0006564205A00426564205A00537065656438
:101FF000005370656564004D61696E0045737465DA
:1020000070732F6D6D004573746570732F6D6D0067
:102010005A73746570732F6D6D005A7374657073A5
:102020002F6D6D005973746570732F6D6D0059734A
:10203000746570732F6D6D005873746570732F6DB8
:102040006D005873746570732F6D6D004164766117
:102050006E6365642053657474696E677300496EBE
:10206000697469616C697A6520454550524F4D002D
:10207000416476616E6365642053657474696E674C
:1020800073004D34323800496E697469616C697A45
:102090006520454550524F4D0046696C616D656E37
:1020A000740054656D706572617475726500537467
:1020B0006570732F6D6D004A65726B0041636365D7
:1020C0006C65726174696F6E0056656C6F636974DC
:1020D000790053657420686F6D65206F666673655F
:1020E000747300436F6E66696775726174696F6EB1
:1020F000004C6576656C696E6720446F6E652100E3
:102100004D6F7665205A00473239205332004E65B4
:10211000787420506F696E74002569202F20257512
:1021200000473239205331004732392053320043BF
:102130006C69636B20746F20426567696E00486F3D
:102140006D696E672058595A00473238005A205638
:10215000616C7565005A2056616C756500496E6446
:102160006578205900496E646578205900496E648D
:102170006578205800496E6465782058004265648F
:10218000204C6576656C696E67006F70656E0054F3
:102190005249474745524544003A20007A5F6D69ED
:1021A0006E00795F6D696E00785F6D696E005265D3
:1021B000706F7274696E6720656E6473746F7020DF
:1021C0007374617475730A00205A3A0020593A00FA
:1021D00020436F756E7420583A0020453A00205A0B
:1021E0003A0020593A00583A0020746F6F206C6F03
:1021F0006E6720657874727573696F6E2070726592
:1022000076656E7465640A0020636F6C642065787F
:1022100074727573696F6E2070726576656E746521
:10222000640A00486F6D696E67206661696C656459
:102230000000000000000000000000000057617274
:102240006E696E673A20486F6D696E672042756DE2
:10225000702044697669736F72203C20310A000255
:1022600002040000A0400000A04000000040000068
:1022700048430000484300003443FFFFFF000000D4
:10228000010000000100008000555555000000408D
:102290000033333300AAAA2A004992240000002008
:1022A00000C7711C0099991900D1451700555515A3
:1022B000003BB1130024491200111111000000105D
:1022C000000F0F0F00E3380E0043790D00CCCC0C4B
:1022D00000C3300C00E8A20B0064210B00AAAA0A7C
:1022E00000703D0A009DD80900427B090092240934
:1022F00000DCD308008888080010420800000008AD
:1023000000F0C107008787070075500700711C07A0
:10231000003EEB0600A1BC0600699006006666065A
:1023200000703E06006118060017F4050074D10520
:10233000005BB00500B290050062720500555505BE
:102340000078390500B81E0500050505004EEC04AF
:102350000087D40400A1BD040090A70400499204A2
:1023600000C17D0400EE690400C756040044440423
:10237000005C320400082104004110040000000445
:10238000003FF00300F8E0030026D20300C3C303BC
:1023900000CCB503003AA803000A9B0300388E0363
:1023A00000C08103009F750300D0690300505E03E5
:1023B000001D53030034480300913D0300333303F1
:1023C0000016290300381F030097150300300C0383
:1023D00000030303000BFA020049F10200BAE8020D
:1023E000005CE002002DD802002DD0020059C80286
:1023F00000B0C0020031B90200DAB10200AAAA029C
:1024000000A0A30200BC9C0200FA9502005C8F02AF
:1024100000DF88020082820200457C0200277602EB
:102420000027700200436A02007C640200D05E0252
:10243000003F590200C85302004D61782054656D79
:10244000703A20313130004D696E2054656D703A1C
:10245000203500544265643A4550434F5320313093
:10246000304B004D61782054656D703A2032363023
:10247000004D696E2054656D703A20350054303A35
:10248000204550434F53203130304B005053553A84
:102490002047656E657269630050726F746F636F79
:1024A0006C3A20312E3000426175643A203235306A
:1024B000303030004D656C7A69004D657368204C92
:1024C0006576656C696E67004578747275646572CF
:1024D000733A203100687474703A2F2F6D61726CFA
:1024E000696E66772E6F72670057414E48414F20E4
:1024F000493300323031382D30312D3230006275A1
:10250000676669782D322E302E78004D61726C69C5
:102510006E005072696E746572205374617473003A
:10252000546865726D6973746F727300426F617283
:102530006420496E666F005072696E74657220493E
:102540006E666F004D61696E00436F6E66696775F8
:10255000726174696F6E0054656D70657261747537
:102560007265004D6F74696F6E00526573756D65AD
:10257000207072696E740041626F757420507269C8
:102580006E7465720054756E6500506175736520D8
:102590007072696E7400496E666F20736372656550
:1025A0006E004D6F76652058004D6F76652059009E
:1025B0004D6F7665205A00457874727564657200B7
:1025C0004578747275646572004D6F7665205A00A7
:1025D0004D6F76652059004D6F76652058004D6F20
:1025E00074696F6E000000007E006000600060F89B
:1025F0007ECC60CC60CC60F860CC00CC00CC00CC51
:1026000000000000000000000000000000000000CA
:102610000000000000000000000000FE7FFE7F06BA
:10262000600000000000000000F00FF81FF81FF825
:102630001FF00FF00FF81FF81FF81FE007C003800E
:1026400001000000000000FE7F0E702664724E7ACA
:102650005E324C8241324C7A5E724E26640E70FEBF
:102660007F000000000000FE7F0E70C663C2438240
:10267000411A58BA5D1A588241C243C6630E70FEB1
:102680007F00000000000088088808101120222028
:1026900022101188088808101100000000000000B6
:1026A0000000000000000020221011880888081097
:1026B00011202220221011880800000000000000D4
:1026C000000000000057414E48414F20493320523E
:1026D000656164792E005072696E74696E672E2E82
:1026E0002E005072696E74207061757365640056B7
:1026F00054726176206D696E005654726176206D59
:10270000696E00566D696E00566D696E00566D619A
:1027100078204500566D6178204500566D6178201F
:102720005A00566D6178205A00566D617820590024
:10273000566D6178205900566D6178205800566DAD
:102740006178205800416476616E6365642053654A
:102750007474696E677300416D6178204500416D46
:102760006178204500416D6178205A00416D6178A3
:10277000205A00416D6178205900416D61782059DF
:1027800000416D6178205800416D6178205800410A
:102790002D74726176656C00412D74726176656C82
:1027A00000412D7265747261637400412D7265740D
:1027B0007261637400416363656C00416363656CBF
:1027C00000416476616E6365642053657474696E5C
:1027D00067730056652D6A65726B0056652D6A65D4
:1027E000726B00567A2D6A65726B00567A2D6A6597
:1027F000726B0056792D6A65726B0056792D6A6589
:10280000726B0056782D6A65726B0056782D6A657A
:10281000726B00416476616E636564205365747405
:10282000696E677300FFFDFCFAF8F6F4F2F0EEEC67
:10283000EAE9E7E5E3E1E0DEDCDAD9D7D5D4D2D0C6
:10284000CFCDCBCAC8C7C5C3C2C0BFBDBCBAB9B75C
:10285000B6B4B3B2B0AFADACAAA9A8A6A5A4A2A1C4
:10286000A09E9D9C9A99989795949392908F8E8D07
:102870008B8A8988878684838281807F7E7D7B7A2C
:10288000797877767574737271706F6E6D6C6B6A30
:10289000696867666564636261605F5E5D5C5B5A20
:1028A0005958585756555453525150504F4E4D4CFD
:1028B0004B4A4A4948474646454443424241403FC5
:1028C0003E3E3D3C3B3B3A3938383736353534337C
:1028D00032323130302F2E2E2D2C2B2B2A29292825
:1028E000272726252524232322212120201F1E1EC1
:1028F0001D1C1C1B1B1A1919181817161615151450
:10290000131312121111100F0F0E0E0D0D0C0C0BD4
:102910000A0A09090808070706060505040403034F
:10292000020201000046696C2E204469612E0046B7
:10293000696C2E204469612E004F6666004F6E0060
:102940004520696E206D6D5E3300416476616E6373
:1029500065642053657474696E6773004D3330335A
:1029600020553120452569205325690050494420D0
:102970004175746F74756E650050494420417574DB
:102980006F74756E65005049442D44005049442DC4
:1029900044005049442D49005049442D49005049B4
:1029A000442D50005049442D5000200820466163BA
:1029B000740020082046616374002008204D61786F
:1029C000002008204D6178002008204D696E00200D
:1029D00008204D696E004F6666004F6E00417574A9
:1029E0006F74656D7000416476616E636564205339
:1029F000657474696E67730053746F7265207365D4
:102A00007474696E6773004C6F61642073657474CD
:102A1000696E677300426564205A00426564205AFB
:102A200000466164652048656967687400466164B2
:102A30006520486569676874004F6666004F6E00E0
:102A4000426564204C6576656C696E670045646913
:102A500074204D657368004C6576656C2062656412
:102A6000004D6F74696F6E0053746F7265207365EB
:102A70007474696E67730042656400426564004E59
:102A80006F7A7A6C65004E6F7A7A6C650046616E7B
:102A90002073706565640046616E207370656564BF
:102AA00000436F6E66696775726174696F6E004C82
:102AB0006F61642073657474696E67730052657327
:102AC000746F7265206661696C736166650053742A
:102AD0006F72652073657474696E677300507265F8
:102AE000686561742041425320636F6E66005072C6
:102AF000656865617420504C4120636F6E660041CB
:102B00006476616E6365642053657474696E67737F
:102B1000004D61696E0000457874727564656420CB
:102B2000746F74616C3A2000256C642E25696D0009
:102B3000004C6F6E67657374206A6F622074696DF4
:102B4000653A200000546F74616C207072696E7475
:102B50002074696D653A2000436F6D706C65746513
:102B6000643A20005072696E7420436F756E743A37
:102B7000200000002100240027002A00000022007D
:102B8000250028002B00000020002300260029003B
:102B90000202020202020202040404040404040405
:102BA0000303030303030303010101010101010105
:102BB0000102040810204080010204081020408017
:102BC0000102040810204080804020100804020107
:102BD000000000010200090A0000000004030807C9
:102BE00000000000000000000000000000000000E5
:102BF0004D6F766520302E316D6D004D6F766520FE
:102C0000316D6D004D6F76652031306D6D004D6F0B
:102C10007665206178697300486F74656E6420740E
:102C20006F6F20636F6C64004578747275646572B1
:102C3000004D6F7665205A004D6F76652059004D26
:102C40006F766520580020573A0020573A00022539
:102C500033640000060C00FE07022603BC017FFE61
:102C600008FE08FE05080806000040F0C88888989D
:102C70007810050808060000C0F88888888888F859
:102C80000505050600012030F8302005080806007B
:102C9000002070F820202020E00509090600FF2010
:102CA00070A8A8B888887020050606060001E08C88
:102CB000EA8C8A0A0509090600FFF8A8888888882E
:102CC00088A8F8050A0A0600FE205050505088A82F
:102CD000A8887003030306000340A040FFFFFFFF26
:102CE000FFFFFFFFFFFFFFFFFFFFFFFFFFFFFFFFF4
:102CF000FFFF0000000605FF0107070602008080B5
:102D00008080800080030303060105A0A0A00506C3
:102D10000606000050F85050F8500509090600FF5B
:102D20002070A8A07028A87020050707060000C81A
:102D3000C8102040989805070706000040A0A04052
:102D4000A890680103030602058080800309090634
:102D500001FF204040808080404020030909060197
:102D6000FF804040202020404080050707060000EB
:102D700020A8702070A8200505050600012020F875
:102D800020200203030601FFC04080050101060068
:102D900003F8020202060100C0C005070706000092
:102DA0000810102040408005070706000070889832
:102DB000A8C8887003070706010040C04040404093
:102DC000E0050707060000708808102040F8050796
:102DD00007060000F808103008887005070706008D
:102DE0000010305090F81010050707060000F8801A
:102DF000F008088870050707060000304080F0885A
:102E00008870050707060000F8081010202020052C
:102E10000707060000708888708888700507070615
:102E2000000070888878081060020505060100C05F
:102E3000C000C0C00206060601FFC0C000C040803E
:102E4000030505060101204080402005030306001C
:102E500002F800F8030505060101804020408005C6
:102E600007070600007088102020002005070706CD
:102E700000007088B8A8B8807005070706000070C9
:102E80008888F8888888050707060000F048487099
:102E90004848F00507070600007088808080887029
:102EA000050707060000F04848484848F0050707AE
:102EB000060000F88080F08080F805070706000013
:102EC000F88080F080808005070706000070888009
:102ED00080988870050707060000888888F8888829
:102EE00088030707060100E04040404040E0050736
:102EF0000706000038101010109060050707060044
:102F0000008890A0C0A09088050707060000808078
:102F100080808080F805070706000088D8A8888888
:102F200088880507070600008888C8A8988888054B
:102F300007070600007088888888887005070706DC
:102F40000000F08888F08080800507070600007088
:102F5000888888A89068050707060000F08888F030
:102F6000A0908805070706000070888070088870A8
:102F7000050707060000F82020202020200507076D
:102F80000600008888888888887005070706000082
:102F900088888888505020050707060000888888A0
:102FA00088A8A85005070706000088885020508888
:102FB0008805070706000088885020202020050784
:102FC00007060000F80810204080F80309090601F0
:102FD000FFE080808080808080E005070706000099
:102FE000804040201010080309090601FFE020205E
:102FF0002020202020E0050303060005205088053E
:1030000001010600FEF803030306010580402005C8
:103010000505060000700878887805070706000097
:103020008080F0888888F0050505060000708080A3
:1030300088700507070600000808788888887805E2
:1030400005050600007088F080700507070600007F
:10305000304840E04040400507070600FE70888881
:10306000887808700507070600008080F088888847
:10307000880307070601004000C0404040E0040903
:10308000090601FE100030101010109060050707AF
:1030900006000080808890E0908803070706010002
:1030A000C04040404040E0050505060000D0A8A80B
:1030B000A8A8050505060000B0C88888880505058C
:1030C00006000070888888700507070600FEF088F3
:1030D0008888F080800507070600FE788888887851
:1030E0000808050505060000B0C8808080050505B4
:1030F00006000078807008F0050707060000202011
:10310000F8202020180505050600008888889868A2
:10311000050505060000888888502005050506007D
:10312000008888A8A8500505050600008850205092
:10313000880507070600FE8888885020408005051E
:1031400005060000F8102040F80309090601FF20D9
:1031500040404080404040200109090602FF808035
:10316000808080808080800309090601FF804040C4
:1031700040204040408005030306000248A890FF1D
:1031800048617264636F6465642044656661756C50
:10319000742053657474696E6773204C6F61646545
:1031A000640A00BC020000BC0200006400000010C1
:1031B00027000000009643000096430000A0400056
:1031C00000C8410000A0420000A0420000C8430027
:1031D00000C84220440020490020204D33303120D7
:1031E00050005049442073657474696E67733A0ADD
:1031F0000020460020420020480020204D31343578
:103200002053004D6174657269616C20686561745A
:10321000757020706172616D65746572733A0A0031
:103220002059002020473239205333205800205A9B
:103230000020204D3432302053004D657368204209
:103240006564204C6576656C696E673A0A00205AA1
:103250000020590020204D323036205800486F6D34
:1032600065206F66667365743A0A00204500205A2F
:103270000020590020580020540020530020204DE9
:1032800032303520420020453C6D61785F655F6AD1
:1032900065726B3E0020583C6D61785F785F6A65AF
:1032A000726B3E20593C6D61785F795F6A65726B25
:1032B0003E205A3C6D61785F7A5F6A65726B3E00B2
:1032C000416476616E6365643A20423C6D696E5F6D
:1032D0007365676D656E745F74696D655F75733E68
:1032E00020533C6D696E5F66656564726174653E0E
:1032F00020543C6D696E5F74726176656C5F6665C3
:103300006564726174653E002054002052002020E4
:103310004D323034205000416363656C65726174D6
:10332000696F6E2028756E6974732F7332293A2085
:10333000503C7072696E745F616363656C3E2052CD
:103340003C726574726163745F616363656C3E2097
:10335000543C74726176656C5F616363656C3E0AB0
:1033600000204500205A0020590020204D323031E5
:103370002058004D6178696D756D20416363656CFF
:1033800065726174696F6E2028756E6974732F732E
:1033900032293A0A00204500205A002059002020F6
:1033A0004D3230332058004D6178696D756D20665F
:1033B00065656472617465732028756E6974732F16
:1033C00073293A0A00204500205A00205900202085
:1033D0004D39322058005374657073207065722027
:1033E000756E69743A0A0020204D32303020443026
:1033F0000A0020204D32303020440020446973619F
:10340000626C65640A0046696C616D656E74207358
:10341000657474696E67733A0020204D3134392029
:1034200043203B20556E69747320696E2043656CA0
:10343000736975730A0020286D6D290020204732BA
:1034400031202020203B20556E69747320696E2046
:103450006D6D000062D811241FBECFEFD0E4DEBF37
:10346000CDBF12E0A0E0B1E0E0E6F0ED01E00BBF7F
:1034700002C007900D92A236B107D9F72FE0A2E65D
:10348000B2E001C01D92AB3DB207E1F71AE1CBE219
:10349000DAE104C02197FE010E94C1E7CA32D107D8
:1034A000C9F70E94D7BF0C942EE80C940000FF923D
:1034B0000F931F93CF93DF931F92CDB7DEB7F82EF4
:1034C00004E018E041E050E0B801CE0101960E940E
:1034D00000DD89818F1102C081E007C00F5F1F4F9F
:1034E00088E00C31180771F780E00F90DF91CF91E1
:1034F0001F910F91FF9008958F929F92AF92BF926C
:10350000CF92DF92EF92FF920F93CF93DF931F92B0
:10351000CDB7DEB75C016B017A014901F50180810D
:1035200091810E94EBE38983002311F0F6018083EF
:10353000BE016F5F7F4FC4010E94F2B8F501808128
:103540009181019691838083FFEFCF1ADF0A81E09A
:10355000E81AF10819F780E00F90DF91CF910F91F1
:10356000FF90EF90DF90CF90BF90AF909F908F90A3
:1035700008959091C00095FFFCCF8093C6000895F8
:10358000CF93DF93FC018491EF012196882321F0F2
:103590000E94B91AFE01F7CFDF91CF9108950F93E2
:1035A0001F93CF93DF938B010E94C01AE80189918A
:1035B000882319F00E94B91AFACFDF91CF911F9199
:1035C0000F91089583E49EE00C94C01A8DE39EE071
:1035D0000C94C01AEC010E94FA410E94E21A8CEB92
:1035E00098E00E94C01A209711F4C3EBD8E00E9423
:1035F0000B9561E0CE010E9471900E94478A0E9463
:103600006A690E9475690E94B25D86E20E944B5D04
:103610008091810D846088608093810D0E94636930
:10362000C091630EC695C6958EE59EE00E9483BA52
:10363000DC2FDD0F1D2F1C0F0E9475BA1092990E02
:10364000C0939A0E6FEF7FEF87EC95E00E94FC5ECF
:103650001092990ED0939A0E84EA98E00E94C66662
:103660001092990E10939A0E87E998E00E94C66610
:1036700082E69EE00E940AB98111DECF89EE93E0D6
:1036800030E6019729F0232F2A950000E9F7F9CFBA
:10369000F89489EE93E038EE019729F0232F2A95CC
:1036A0000000E9F7F9CF0E94FA41A895FECF7F927A
:1036B0008F929F92AF92BF92CF92DF92EF92FF9242
:1036C0000F931F93CF93DF931F92CDB7DEB77C018B
:1036D00059018B016B01C40ED51E0C151D0559F146
:1036E000F70180809180F80171908F017982C40187
:1036F0000E94EBE3781691F0672DC4010E94F3E37A
:10370000C4010E94EBE39981891741F00E94E61AF7
:103710008AEE97E00E94C01A81E00EC0BE016F5F82
:103720007F4FC5010E94F2B8F70180819181019617
:1037300091838083D2CF80E00F90DF91CF911F9152
:103740000F91FF90EF90DF90CF90BF90AF909F9040
:103750008F907F900895BF92CF92DF92EF92FF9269
:103760000F931F93CF93DF9300D000D01F92CDB75C
:10377000DEB71092C0008091C00082608093C000CC
:103780001092C50087E08093C4008091C1008061E1
:103790008093C1008091C10088608093C1008091B6
:1037A000C10080688093C1000E9460B286E39EE001
:1037B0000E94C01A0E94E61A14B710FF04C08DE2DE
:1037C0009EE00E94C01A11FF04C08CE19EE00E949E
:1037D000C01A12FF04C08AE09EE00E94C01A13FFC4
:1037E00004C089EF9DE00E94C01A15FF04C088EE56
:1037F0009DE00E94C01A14BE81EE9DE00E94C01A96
:1038000080E20E94B91A83ED9DE00E94C01A8AE00E
:103810000E94B91A0E94E61A83EC9DE00E94C01A29
:1038200088EB9DE00E94C01A8EE99DE00E94C01ABC
:103830000E94E61A87E89DE00E94C01A0E94E61ADC
:103840008091D50F9091D60F9E012F5F3F4F790148
:10385000009721F4C9018B5D9F4003C0281B390BE1
:10386000C9019A83898369817A8188E79DE00E94F2
:10387000A33660EB75E081E69DE00E94A3368AE006
:103880000E94B91A81E080934F0380935003809384
:103890005103809352030E9462BC8CE0EAE1F3E0A2
:1038A000A3E0BEE001900D928A95E1F70E94577F58
:1038B000559A5D98549A5C98249A87ED80937A0083
:1038C00010927E0080917E00806880937E008091BF
:1038D0007E00806480937E0080E888BD80916E00C9
:1038E000846080936E006AEF70E080E090E00E9458
:1038F00026B285E090E090936C0580936B0560E0C4
:1039000080912001909121010E945C4520E030E0EF
:1039100040EA50E40E94BBDD87FF0AC0809120018D
:103920009091210140979093210180932001E7CF4E
:1039300084E091E0909346018093450160E080919E
:103940007005909171050E945C4520E030E042E8EE
:1039500053E40E94AEE6181654F4809170059091DD
:10396000710540969093710580937005E7CF809123
:103970001E0190911F010E94C84420E030E040EAFF
:1039800050E40E94BBDD87FF0AC080911E01909128
:103990001F01409790931F0180931E01E8CF8091F3
:1039A0006E0590916F050E94C84420E030E04CED18
:1039B00052E40E94AEE6181654F480916E05909180
:1039C0006F05409690936F0580936E05E8CF0E9437
:1039D000ED8C1D8282E390E09C838B831A82198296
:1039E00001E0970141E050E0BE016B5F7F4FCE01E7
:1039F00003960E947C1A8D81863119F00E94719D78
:103A000010C083E390E09C838B831A82198201E0CB
:103A1000970140E150E06CED72E0CE0103960E9408
:103A20007C1A81E08093AF0D3A98429A3B98439A72
:103A30003C98449A10920603109205030E94548108
:103A40003D9A3F9A229A209A569A5E9A569A5E9A80
:103A50000D9A159A569A5E9A579A5F985E9A809137
:103A600000038E7F809300033E9A46985E9A809171
:103A700000038D7F80930003239A2B98159A8091E1
:103A800000038B7F80930003219A29985E9A80918E
:103A900080008C7F8093800080918100877E886089
:103AA00080938100809180008F738093800080914B
:103AB0008100887F82608093810080E090E4909311
:103AC0008900809388001092850010928400809174
:103AD0006F00826080936F0078940E941F9C0E9408
:103AE0000B950E94AD908EE59EE00E9483BA00E4A3
:103AF00020E840E060E082E69EE00E94E4B4882393
:103B000041F00CED18E020E440E160E080E00E942C
:103B1000495B82E69EE00E940AB98111E8CF64EC1D
:103B200079E080E090E00E946E360091620ED090C5
:103B3000630E10E0C801C89797FD0196959587958B
:103B4000C82E8EE59EE00E9483BAB80168547109C0
:103B500076956795E62E0857110916950795F02E6C
:103B60005EEEB52EBD0C3AEFD30E03E128E34CE038
:103B70006C2D82E69EE00E94E4B4882341F00CEDB7
:103B80001CE023E147E06CE08C2D0E94495B0E9421
:103B900075BA21E132E04B2D6E2D82E69EE00E9447
:103BA00075B52EE132E04D2D6F2D82E69EE00E942C
:103BB00075B582E69EE00E940AB98111D6CF64EC09
:103BC00079E080E090E00E946E3698E288E10FB6DE
:103BD000F894A895809360000FBE909360000F90BA
:103BE0000F900F900F900F90DF91CF911F910F9139
:103BF000FF90EF90DF90CF90BF9008952F923F926B
:103C00004F925F926F927F928F929F92AF92BF92EC
:103C1000CF92DF92EF92FF920F931F93CF93DF9398
:103C2000CDB7DEB727970FB6F894DEBF0FBECDBF76
:103C30000E94E6910E9460B26B017C0180910301B9
:103C4000882359F180915603882339F14091EF047C
:103C50005091F0046091F1047091F2049701860193
:103C6000041B150B260B370B37FD2AC0833079F068
:103C70003CF4813094F00E94E61A8BE498E00BC08B
:103C8000843059F40E94E61A8CE198E004C00E9446
:103C9000E61A84E398E00E94C01A2091030130E004
:103CA000A8EEB3E00E943EE4C60ED71EE81EF91E41
:103CB000C092EF04D092F004E092F104F092F2048A
:103CC0008091D904843030F40E94E161811102C0F6
:103CD0000E947D600E9460B26B017C0140910103F3
:103CE0005091020360910303709104034115510543
:103CF0006105710529F180917C0290917D02A0916E
:103D00007E02B0917F02840F951FA61FB71FA701E7
:103D10009601281B390B4A0B5B0B57FD11C00E9403
:103D2000E21A6091C4057091C5058DE598E00E9486
:103D3000CF1A8AE00E94B91A80E090E00E94EA1A45
:103D400040910401509105016091060170910701B5
:103D50004115510561057105B1F190911A0E8091DF
:103D60001B0E981749F0C0927C02D0927D02E0921F
:103D70007E02F0927F0227C080917C0290917D02AA
:103D8000A0917E02B0917F02840F951FA61FB71FDE
:103D900097018601081B190B2A0B3B0B37FD13C03B
:103DA0005E9A809100038E7F809300035E9A8091DB
:103DB00000038D7F80930003159A809100038B7F11
:103DC000809300035E9A8091F7049091F804A0918B
:103DD000F904B091FA04A7019601281B390B4A0B8C
:103DE0005B0B57FD2AC190911A0E80911B0E9817FC
:103DF00091F0E0911B0E3BE5E39FF0011124E757A2
:103E0000F94F608180911B0E90911A0E981729F03E
:103E10008F5F8F70F9CF60911D0670E084E00E9483
:103E2000B4B180916D05882309F4FAC020903B015C
:103E300030903C0100913D010F8310913E011E83A3
:103E40006091EC027091ED026E5F7F4F072E000CC7
:103E5000880B990B0E94C2DD9101A8010E94BBDD75
:103E600087FDDEC000911B0E09831A821B821C8213
:103E70001D8280911A0E1981811709F460C0812F6B
:103E800090E02BE5289FF001299FF00D1124ED5CB7
:103E9000F94F458956896789708D452B462B472BED
:103EA00081F4418D528D638D748D452B462B472BAC
:103EB00041F4458D568D678D70A1452B462B472BC0
:103EC000C9F13BE5389F8001399F100D11240D5C2D
:103ED000194FF80161817281838194810E94FCE60F
:103EE0004B015C01F80161A172A183A194A10E9420
:103EF000C0DD2B013C01F80165A176A187A190A549
:103F00000E94C0DD9B01AC01C301B2010E9448E5E3
:103F1000A50194010E9421DE5B018C012A813B8175
:103F20004C815D810E94AEE6181624F4AA82BB8201
:103F30000C831D8389818F5F8F7089839ACF209135
:103F40003F013091400140914101509142016A810D
:103F50007B818C819D810E9421DE91014F815E8158
:103F60000E944EE45B018C019B01AC01B1018F8189
:103F70009E810E94AEE61816B4F020903701309072
:103F80003801F0913901FF8320913A012E8391018C
:103F90004F2F5E81B501C8010E94AEE618161CF0D5
:103FA00015010F831E838090F3049090F404A09079
:103FB000F504B090F60491014F815E81C501B40112
:103FC0000E94AEE61816D4F420E037ED43EA5CE335
:103FD000B1018F819E810E9421DE2B013C0128E4EA
:103FE00031EE4AE75FE3C501B4010E9421DEA3017F
:103FF00092010E944EE41B018F839E83C101AF8119
:10400000BE818093F3049093F404A093F504B093DD
:10401000F604B101CD010E94BAE5CB010E94A1B521
:1040200034E6C30ED11CE11CF11CC092F704D092FF
:10403000F804E092F904F092FA040E942446809178
:10404000DB02813009F06EC00E9460B26B017C011E
:104050008091FF0490910005A0910105B0910205A7
:1040600097018601081B190B2A0B3B0B37FD3AC041
:104070008090B80D9090B90DA090BA0DB090BB0D86
:104080000E949B406093B80D7093B90D8093BA0D58
:104090009093BB0D0091E0021091E1022091E202A9
:1040A0003091E302081919092A093B09DC01CB0107
:1040B000800F911FA21FB31F8093E0029093E10233
:1040C000A093E202B093E302D701C601805F984D4E
:1040D000AF4FBF4F8093FF0490930005A09301055D
:1040E000B09302058091FB049091FC04A091FD0423
:1040F000B091FE04A7019601281B390B4A0B5B0BFC
:1041000057FD10C030E8C30E3EEED31EE11CF11C7B
:10411000C092FB04D092FC04E092FD04F092FE04F5
:104120000E94DE9C0E94088D8091FB02882309F486
:1041300047C00E9460B20091F7021091F8022091EE
:10414000F9023091FA02DC01CB01801B910BA20B2A
:10415000B30BB7FD35C00E9460B26B017C012091AA
:10416000FB0230E0A8EEB3E00E943EE4C60ED71E8C
:10417000E81EF91EC092F702D092F802E092F9020E
:10418000F092FA0280E00E9400418AE027960FB682
:10419000F894DEBF0FBECDBFDF91CF911F910F917D
:1041A000FF90EF90DF90CF90BF90AF909F908F9057
:1041B0007F906F905F904F903F902F900C94B91A22
:1041C00027960FB6F894DEBF0FBECDBFDF91CF911B
:1041D0001F910F91FF90EF90DF90CF90BF90AF9025
:1041E0009F908F907F906F905F904F903F902F9017
:1041F00008958F929F92AF92BF92EF92FF920F938A
:104200001F93CF93DF93CDB7DEB7A0970FB6F89487
:10421000DEBF0FBECDBF611571058105910591F11E
:1042200000E0842E912CA12CB12C102FEE24E394CD
:10423000F12CEC0EFD1EE00EF11C07FDFA94A50119
:1042400094010E9411E4F7016083B901CA010F5F74
:10425000611571058105910541F71F3F31F1E1E0DD
:10426000F0E0EC0FFD1FE10FF11D17FDFA958081C5
:104270008A3010F097E301C090E3890F0E94B91AC9
:104280001150EBCF80E3A0960FB6F894DEBF0FBEBF
:10429000CDBFDF91CF911F910F91FF90EF90BF9015
:1042A000AF909F908F900C94B91AA0960FB6F89487
:1042B000DEBF0FBECDBFDF91CF911F910F91FF9059
:1042C000EF90BF90AF909F908F900895CF92DF9224
:1042D000EF92FF926B017C0197FF0BC08DE20E9471
:1042E000B91AF094E094D094C094C11CD11CE11C84
:1042F000F11C4AE0C701B601FF90EF90DF90CF902C
:104300000C94F9208F929F92AF92BF92CF92DF923E
:10431000EF92FF92CF936B017C01B42E20E030E04E
:10432000A9010E94BBDD87FF07C08DE20E94B91A78
:10433000F7FAF094F7F8F094C0E060E070E080E005
:104340009FE3CB1541F02DEC3CEC4CEC5DE30E947F
:1043500021DECF5FF6CF9B01AC01C701B6010E9401
:104360004EE46B017C010E94C1E54B015C014AE017
:104370000E94F920CC2389F1C501B4010E94C0DD5F
:104380009B01AC01C701B6010E944DE46B017C01A9
:104390008EE20E94B91A20E030E040E251E4C70109
:1043A000B6010E9421DE4B015C010E94BAE56B015F
:1043B000770FEE08FF08C701B6010E946621C7010A
:1043C000B6010E94C2DD9B01AC01C501B4010E948F
:1043D0004DE46B017C01C150F1F6CF91FF90EF905D
:1043E000DF90CF90BF90AF909F908F9008958DE019
:1043F0000E94B91A8AE00C94B91A8091350C9091F8
:10440000360C981759F0E92FF0E0EB5CF34F8281FE
:104410009F5F9F779093360C90E008958FEF9FEF0A
:1044200008951F920F920FB60F9211240F900FBE96
:104430000F901F9018951F920F920FB60F92112494
:104440000BB60F922F938F939F93EF93FF9320912F
:10445000360CE091350C81E08E0F8F779091C6007D
:10446000281729F0F0E0EB5CF34F9283E82FE093FC
:10447000350CFF91EF919F918F912F910F900BBE73
:104480000F900FBE0F901F9018952F923F924F9252
:104490005F926F927F928F929F92AF92BF92CF92D4
:1044A000DF92EF92FF920F931F93CF93DF93CDB7DD
:1044B000DEB766970FB6F894DEBF0FBECDBF8FEFA5
:1044C0009FEF9093890080938800BAE0DB2E212C27
:1044D000312C789480914C0590914D05A0914E051A
:1044E000B0914F05892B8A2B8B2B09F0CCC1809181
:1044F000C70F8823D1F01092C70F8091C50F9091FC
:10450000C60F892B91F010920C051092C60F1092D5
:10451000C50F90911A0E80911B0E981731F0809163
:104520001B0E8F5F8F7080931B0E8091C50F909133
:10453000C60F892B09F4A7C10091480510914905C0
:1045400020914A0530914B05809144059091450595
:10455000A0914605B091470540913A0550E060E0D2
:1045600070E0801B910BA20BB30B481759076A0729
:104570007B0710F4DB01CA01482F800F911FA21F97
:10458000B31F8093480590934905A0934A05B093C3
:104590004B05809184009091850080968090210544
:1045A00090902205A0902305B0902405009111055C
:1045B000109112052091130530911405080D191D55
:1045C0002A1D3B1D009321051093220520932305EE
:1045D0003093240537FD1CC05F9A0091AB02109107
:1045E000AC022091AD023091AE0280900305082C00
:1045F000000C9908AA08BB08080D191D2A1D3B1DAF
:104600000093AB021093AC022093AD023093AE0244
:104610008090250590902605A0902705B09028054C
:104620000091150510911605209117053091180578
:10463000080D191D2A1D3B1D009325051093260505
:10464000209327053093280537FD1CC0469A00911A
:10465000AF021091B0022091B1023091B20280906D
:104660000405082C000C9908AA08BB08080D191DA0
:104670002A1D3B1D0093AF021093B0022093B1029C
:104680003093B2028090290590902A05A0902B05C6
:10469000B0902C050091190510911A0520911B0569
:1046A00030911C05080D191D2A1D3B1D009329057D
:1046B00010932A0520932B0530932C0537FD1CC041
:1046C0002B9A0091B3021091B4022091B50230915F
:1046D000B60280900505082C000C9908AA08BB08B2
:1046E000080D191D2A1D3B1D0093B3021093B4023F
:1046F0002093B5023093B60280902D0590902E0540
:10470000A0902F05B090300500911D0510911E0559
:1047100020911F0530912005080D191D2A1D3B1DF4
:1047200000932D0510932E0520932F05309330050F
:1047300037FD1CC0299A0091B7021091B802209150
:10474000B9023091BA0280900605082C000C990835
:10475000AA08BB08080D191D2A1D3B1D0093B702AE
:104760001093B8022093B9023093BA0220918400CA
:104770003091850028173907C8F300912105109161
:104780002205209123053091240537FD15C0809026
:104790000D0590900E05A0900F05B090100508191A
:1047A00019092A093B09009321051093220520933A
:1047B0002305309324055F98009125051091260567
:1047C000209127053091280537FD15C080900D05F3
:1047D00090900E05A0900F05B090100508191909CA
:1047E0002A093B09009325051093260520932705E8
:1047F0003093280546980091290510912A052091AB
:104800002B0530912C0537FD15C080900D0590903B
:104810000E05A0900F05B0901005081919092A0976
:104820003B090093290510932A0520932B0530930B
:104830002C052B9800912D0510912E0520912F0508
:104840003091300537FD15C080900D0590900E0514
:10485000A0900F05B0901005081919092A093B0905
:1048600000932D0510932E0520932F0530933005CE
:104870002998415041F020918400309185002817FB
:104880003907C8F38ACE80914C0590914D05A091CF
:104890004E05B0914F05892B8A2B8B2B11F00C9470
:1048A000742AE091C50FF091C60F309711F40C9463
:1048B000022C8091480590914905A0914A05B0913C
:1048C0004B05409144055091450560914605709116
:1048D000470584179507A607B707D8F010920C056F
:1048E0001092C60F1092C50F90911A0E80911B0E58
:1048F000981711F40C94022C80911B0E8F5F8F700F
:1049000080931B0EA0ED8A2EA7E09A2EA12CB12C2D
:10491000FBC3409140055091410560914205709163
:104920004305481759076A077B0708F4A3C140905D
:104930003C0550903D0560903E0570903F0585A96F
:1049400096A9A7A9B0AD481659066A067B0608F0D5
:1049500074C1411451046104710449F48091080543
:1049600090910905A0910A05B0910B056AC1B0E0CC
:10497000AC2D842D352D262DF981EA817B816C812A
:104980005D814E819F815091BC0D589F712D66278E
:104990004091BD0D489F700D611D1090BE0D189E79
:1049A000600D539F700D611D439F600D529F600D00
:1049B000F72FE62FF79F512D44279927F69F500D8B
:1049C000411D9B1FE79F500D411D9B1FE69F400D02
:1049D000911DF42FE92FF79FA12D44279927F69FCA
:1049E000A00D411D9B1FE79FA00D411D9B1FE69F32
:1049F000400D911DF42FE92F552780910805309126
:104A0000090520910A050090EB040B2A09F484C0E3
:104A10004091E7044F9F51198B0B3B0B2B0B90914F
:104A2000E8049F9F501981093B0B2B0BA091E904CF
:104A3000AF9F801931092B0B4E9F501981093B0BF9
:104A40002B0B9E9F801931092B0BAE9F301921092A
:104A5000F79FA12D44279927F69FA00D411D9B1F6D
:104A6000E79FA00D411D9B1FE69F400D911DF42F58
:104A7000E92F4091E3044F9F510D8B1F3B1F2B1FCC
:104A80009091E4049F9F500D811D3B1F2B1FA0910F
:104A9000E504AF9F800D311D2B1F4E9F500D811DD2
:104AA0003B1F2B1F9E9F800D311D2B1FAE9F300D76
:104AB000211DF79FA12D44279927F69FA00D411D89
:104AC0009B1FE79FA00D411D9B1FE69F400D911D61
:104AD000F42FE92F4091DF044F9F51198B0B3B0BB3
:104AE0002B0B9091E0049F9F501981093B0B2B0BDE
:104AF000A091E104AF9F801931092B0B4E9F5019F3
:104B000081093B0B2B0B9E9F801931092B0BAE9F0C
:104B1000301921090C940E264091E7044F9F510D46
:104B20008B1F3B1F2B1F9091E8049F9F500D811DF1
:104B30003B1F2B1FA091E904AF9F800D311D2B1F40
:104B40004E9F500D811D3B1F2B1F9E9F800D311DC1
:104B50002B1FAE9F300D211DF79FA12D44279927B4
:104B6000F69FA00D411D9B1FE79FA00D411D9B1FA0
:104B7000E69F400D911DF42FE92F4091E3044F9FD4
:104B800051198B0B3B0B2B0B9091E4049F9F5019F9
:104B900081093B0B2B0BA091E504AF9F80193109D4
:104BA0002B0B4E9F501981093B0B2B0B9E9F80199D
:104BB00031092B0BAE9F30192109F79FA12D4427F6
:104BC0009927F69FA00D411D9B1FE79FA00D411D3A
:104BD0009B1FE69F400D911DF42FE92F4091DF04AC
:104BE0004F9F510D8B1F3B1F2B1F9091E0049F9FE8
:104BF000500D811D3B1F2B1FA091E104AF9F800D25
:104C0000311D2B1F4E9F500D811D3B1F2B1F9E9F43
:104C1000800D311D2B1FAE9F300D211D1124CA2E7A
:104C2000F983EA837B836C835D834E839F8390E06B
:104C3000932BA0E0B0E0A22B04C081A992A9A3A964
:104C4000B4A900903B0504C0880F991FAA1FBB1F81
:104C50000A94D2F72AE436E141E0488BF901459104
:104C6000559165917491481759076A077B0708F4B5
:104C70008AC497C440913605509137056091380534
:104C800070913905481759076A077B0708F0C6C1B4
:104C90008091350581111FC0DF01AF5BBF4FED90E3
:104CA000FD900D911C9113971D962D913D914D9165
:104CB0005C9161A972A983A994A90E94CD9B81E00E
:104CC00080933505E091C50FF091C60F41A852A819
:104CD00063A874A88BC18091310590913205A09191
:104CE0003305B091340541AD52AD63AD74AD841759
:104CF0009507A607B70708F073C10097A105B1058E
:104D000049F4409008055090090560900A0570909C
:104D10000B056CC150E06885482E292F8A2FA98584
:104D2000FA85EB857C854D853E859F854091BC0D40
:104D3000449DE12D77273091BD0D349DE00D711D0F
:104D40001090BE0D149C700D429FE00D711D329F9E
:104D5000700D489F700DAE2FF72FAE9F412D33275A
:104D60009927A79F400D311D951FFE9F400D311DB6
:104D7000951FF79F300D911DA32FF92FAE9F612D29
:104D800033279927A79F600D311D951FFE9F600D4A
:104D9000311D951FF79F300D911DA32FF92F44272B
:104DA000409008052091090580910A050090EB04C8
:104DB000052A09F484C03091E7043A9F4119450A55
:104DC000250B850B9091E8049A9F40194108250B0B
:104DD000850B6091E9046A9F40182109850B3F9F6C
:104DE00040194108250B850B9F9F40182109850B11
:104DF0006F9F20198109AE9F612D33279927A79FA7
:104E0000600D311D951FFE9F600D311D951FF79F91
:104E1000300D911DA32FF92F3091E3043A9F410DDE
:104E2000451E251F851F9091E4049A9F400D411C4B
:104E3000251F851F6091E5046A9F400C211D851F79
:104E40003F9F400D411C251F851F9F9F400C211D2A
:104E5000851F6F9F200D811DAE9F612D33279927E0
:104E6000A79F600D311D951FFE9F600D311D951F81
:104E7000F79F300D911DA32FF92F3091DF043A9F3A
:104E80004119450A250B850B9091E0049A9F401922
:104E90004108250B850B6091E1046A9F40182109A8
:104EA000850B3F9F40194108250B850B9F9F40189C
:104EB0002109850B6F9F201981090C94E1273091FE
:104EC000E7043A9F410D451E251F851F9091E80478
:104ED0009A9F400D411C251F851F6091E9046A9F20
:104EE000400C211D851F3F9F400D411C251F851F24
:104EF0009F9F400C211D851F6F9F200D811DAE9F20
:104F0000612D33279927A79F600D311D951FFE9FA7
:104F1000600D311D951FF79F300D911DA32FF92FA7
:104F20003091E3043A9F4119450A250B850B909176
:104F3000E4049A9F40194108250B850B6091E50414
:104F40006A9F40182109850B3F9F40194108250B96
:104F5000850B9F9F40182109850B6F9F20198109A0
:104F6000AE9F612D33279927A79F600D311D951F97
:104F7000FE9F600D311D951FF79F300D911DA32FD2
:104F8000F92F3091DF043A9F410D451E251F851FE3
:104F90009091E0049A9F400D411C251F851F609150
:104FA000E1046A9F400C211D851F3F9F400D411C5D
:104FB000251F851F9F9F400C211D851F6F9F200D62
:104FC000811D11246887A987FA87EB877C874D8725
:104FD0003E879F87512C522A612C712C682A06C06B
:104FE000E25BFF4F408051806280738000903B0500
:104FF00004C0440C551C661C771C0A94D2F78AE442
:1050000096E121E0FC01459155916591749144151B
:1050100055056605770508F427C331C380911A0149
:1050200090911B01A0911C01B0911D01B7FF64C0BC
:10503000EA5BFF4F80809180A280B38000903B05A7
:1050400004C0880C991CAA1CBB1C0A94D2F78AE4E1
:1050500096E121E0FC0145915591659174914815C7
:1050600059056A057B0550F4B694A79497948794E4
:10507000220F049636E18636930761F720933A05AE
:1050800020E282169104A104B10408F48CC380E2EA
:10509000881A9108A108B108811498E09906A10422
:1050A000B10408F45CC3A4E09A9EC0011124865B9D
:1050B0009D4EFC01329625913491B82D6627B39F01
:1050C000A001B29F410D561F0694461F561F112482
:1050D00060E070E0FC0125913491C901A0E0B0E0EE
:1050E000841B950BA60BB70B80931A0190931B01A1
:1050F000A0931C01B0931D0180901A0190901B0198
:10510000A0901C01B0901D018091C50F9091C60F19
:10511000892B09F0E1C10E944C9C9093C60F8093AB
:10512000C50F892B09F4D8C1E091C50FF091C60FC6
:10513000808183FF3EC085899689A789B08D809341
:10514000AB029093AC02A093AD02B093AE02818DFE
:10515000928DA38DB48D8093AF029093B002A093F3
:10516000B102B093B202858D968DA78DB0A18093C8
:10517000B3029093B402A093B502B093B60281A19A
:1051800092A1A3A1B4A18093B7029093B802A09377
:10519000B902B093BA0290911A0E80911B0E981723
:1051A00009F4B9CF80911B0E8F5F8F7080931B0E17
:1051B000B2CF85889688A788B08C81E0811491044D
:1051C000A104B10409F480E0218D328D438D548D0A
:1051D0002B8B3C8B4D8B5E8B232B242B252B09F0AB
:1051E0008260458D568D678D70A141155105610511
:1051F000710509F0846080930C05109231051092BE
:105200003205109233051092340510923C0510922D
:105210003D0510923E0510923F05DF01AA5BBF4F8E
:105220008D919D910D90BC91A02DF12C893330E38F
:105230009307A105B10560F4880F991FAA1FBB1F32
:10524000893320E39207A105B10510F4F394EECF62
:10525000F0923B058F2D90E09A8B898B85A196A1CA
:10526000A7A1B0A50F2C04C0880F991FAA1FBB1FB0
:105270000A94D2F78093440590934505A093460580
:10528000B0934705442455243201481A590A6A0A42
:105290007B0A40922D0550922E0560922F05709248
:1052A00030054092290550922A0560922B05709294
:1052B0002C05409225055092260560922705709294
:1052C0002805409221055092220560922305709294
:1052D0002405880C991CAA1CBB1C80921105909275
:1052E0001205A0921305B09214050B891C892D8913
:1052F0003E89000F111F221F331F009315051093C5
:1053000016052093170530931805440F551F661F87
:10531000771F4093190550931A0560931B057093EE
:105320001C0541A152A163A174A1440F551F661F22
:10533000771F40931D0550931E0560931F057093C2
:105340002005880F991FAA1FBB1F80930D059093FE
:105350000E05A0930F05B09310051092480510920A
:10536000490510924A0510924B0581A592A5A3A567
:10537000B4A50F2C04C0880F991FAA1FBB1F0A9445
:10538000D2F78093400590934105A0934205B093D6
:10539000430585A596A5A7A5B0A904C0880F991FA8
:1053A000AA1FBB1FFA94D2F7809336059093370556
:1053B000A0933805B0933905EB5BFF4F8081909146
:1053C0000705891721F0809307050E941F9C809193
:1053D000060381110E94DB802FEF3FEFA90120938C
:1053E0001A0130931B0140931C0150931D01E09161
:1053F000C50FF091C60FDF01DD96ED90FD900D9188
:105400001C9121A932A943A954A9E65BFF4F6081F1
:105410007181828193810E94CD9B10923505E0912C
:10542000C50FF091C60FE65BFF4F40805180628050
:105430007380098804C0440C551C661C771C0A94B0
:10544000D2F78AE496E121E0FC01459155916591FE
:105450007491441555056605770558F4769467945C
:1054600057944794220F049646E656E14817590789
:1054700059F720933A0550E245165104610471042E
:1054800008F4BAC130E2431A5108610871084114A6
:1054900048E054066104710408F48BC154E0559E41
:1054A000C0011124865B9D4EFC01329625913491FA
:1054B000742D6627739FA001729F410D561F06949D
:1054C000461F561F1124FC0185909490A12CB12CED
:1054D000841A950AA108B10880924C0590924D0556
:1054E000A0924E05B0924F0580914C0590914D05CC
:1054F000A0914E05B0914F05AC01BD01009721E090
:10550000A207B10520F04FEF5FEF60E070E0841B71
:10551000950BA60BB70B80934C0590934D05A0936C
:105520004E05B0934F05F8948091840090918500CA
:105530004096DA94DD2041F0240E351E28163906F7
:1055400010F40C94692201C01C0130928900209251
:105550008800789466960FB6F894DEBF0FBECDBF74
:10556000DF91CF911F910F91FF90EF90DF90CF903F
:10557000BF90AF909F908F907F906F905F904F9073
:105580003F902F900895B695A79597958795488950
:10559000440F488B2C5F3F4F56E12636350709F004
:1055A0005DCB788970933A0580329105A105B105EC
:1055B00008F455C08097A109B109811558E09507F5
:1055C000A105B105F0F074E0979F90011124265BCE
:1055D0003D4EF901329645915491EE27859FB001D9
:1055E000849F610D7E1F06946E1F7E1F1124F9019A
:1055F00085909490A12CB12C861A970AA108B10825
:1056000021C0AC01BD017695679557954795FA0184
:10561000EC7F9F01265B314FF90185909490F90151
:105620003296459154918770849F9001859F300DEB
:105630001124F3E036952795FA95E1F7821A930A3B
:10564000A12CB12C480C591C6A1C7B1C40923C05B7
:1056500050923D0560923E0570923F0555CD80E227
:1056600090E0A0E0B0E0A6CF76946794579447947A
:10567000220F0496A6E186369A0709F0C3CC209340
:105680003A05B0E24B1651046104710408F461C09C
:1056900090E2491A5108610871084114A8E05A06BD
:1056A00061047104F8F0B4E05B9EC0011124865BD4
:1056B0009D4EFC01329625913491742D6627739F7F
:1056C000A001729F410D561F0694461F561F1124BC
:1056D000FC0185909490A12CB12C841A950AA10804
:1056E000B10822C0D301C201B695A79597958795B9
:1056F000FC01EC7FCF01865B914FFC01859094907B
:10570000FC01329625913491442D4770429FC0018F
:10571000439F900D112463E0969587956A95E1F774
:10572000881A990AA12CB12C8091310590913205EB
:10573000A0913305B0913405880D991DAA1DBB1D9C
:105740008093310590933205A0933305B0933405CF
:10575000DBCC60E2462E512C612C712C99CFD50107
:10576000C401B695A79597958795FC01EC7FCF016D
:10577000865B914FFC0125913491FC013296459155
:105780005491682D6770649FC001659F900D11242E
:1057900043E0969587954A95E1F7281B390BC90197
:1057A000A0E0B0E0A1CC50E2852E912CA12CB12C30
:1057B0006ECCD301C201B695A79597958795FC014C
:1057C000EC7FCF01865B914FFC0185909490FC01AA
:1057D000329625913491442D4770429FC001439FDA
:1057E000900D1124A3E096958795AA95E1F7881A64
:1057F000990AA12CB12C70CE90E2492E512C612C2B
:10580000712C40CE80ED882E87E0982EA12CB12CF3
:1058100082CC0E94B91A81EE96E10C94C01A80E104
:10582000E3E0FEE0A7ECB2E001900D928A95E1F78B
:1058300008958091330C9091340C009731F04AE038
:1058400050E060E070E00C94BCDA60E070E0CB0106
:1058500008950E94192C97FD0CC00E94192C6F3FCF
:1058600071058105910509F034F40E94192C862FE9
:10587000089580E008958FEF08958091330C909102
:10588000340C892B39F00E94292C91E0811103C03E
:1058900090E001C091E0892F08950E94192CCB015E
:1058A00008950F931F93CF938091330C9091340CF4
:1058B000009711F1FC018F01C1912C2F2F7DA9F0D0
:1058C000C53411F0C536B9F7F801108260E070E018
:1058D0008091330C9091340C0E9460D9F801C08300
:1058E000562F472F382F292F0BC060E070E0CF9143
:1058F0001F910F910C9460D950E040E030E020E01F
:10590000652F742F832F922FCF911F910F910895A0
:1059100081548A3108F042C0E82FF0E0409116032C
:1059200050911703609118037091190304C0769584
:105930006795579547958A95D2F7842F817040FFD8
:105940002FC0EE59FD4F9081992309F1E091C405D4
:10595000F091C505E90FF11D908120ED290F2A3046
:1059600098F09E3211F491810CC09D3211F09B325F
:1059700071F4918120ED290F2A3030F09E3239F4F4
:10598000928190539A3018F42E2F9F2F02C020E05E
:1059900090E02093330C9093340C089580E00895A8
:1059A0000895CF92DF92EF92FF920F931F93CF93C0
:1059B000DF9388E50E94882CD82E89E40E94882CE9
:1059C000C82E882321F00E944D2C182F27C0DD20DF
:1059D00011F10E94512C2091260330912703409110
:1059E0002803509129030E944DE420E030E040E27A
:1059F00051E40E944DE420E030E044E352E40E9490
:105A00004EE421E63BE046E35CE30E9421DE0E9497
:105A1000BAE5633010F01FEF01C0162F89E50E9430
:105A2000882CF82E8AE40E94882CC82F882321F025
:105A30000E944D2CD82F27C0FF2011F10E94512C1D
:105A400020912A0330912B0340912C0350912D0378
:105A50000E944DE420E030E040E251E40E944DE439
:105A600020E030E044E352E40E944EE421E63BE0D3
:105A700046E35CE30E9421DE0E94BAE5633010F049
:105A8000DFEF01C0D62F8AE50E94882CE82E811115
:105A900005C081E50E94882C082F01C000E0C110DC
:105AA00001C0C0E02C2F30E0D11001C0F12C2F0D2F
:105AB000311D2130310521F4E11007C0011105C06D
:105AC0000E94E21A8FE097E108C017FD02C0D7FFDD
:105AD0000EC00E94E21A80EF96E1DF91CF911F91F4
