:100000000C942A180C9454180C9454180C945418EA
:100010000C9454180C9454180C9454180C945418B0
:100020000C9454180C94B7B00C9454180C945418A5
:100030000C9454180C9453990C9454180C94541810
:100040000C9454180C94803F0C9453BD0C94541889
:100050000C9428200C941E200C9454180C945418C2
:100060000C9454180C9454180C9454180C94541860
:100070000C9454180C9454180C9454180C94541850
:100080000C9454180C9454180C9454184A87F48502
:100090002B8686872B862B862B862B862B862B867C
:1000A0002B862B862B862B862B862B862B862B86C8
:1000B0002B862B862B862B862B862B862B862B86B8
:1000C0002B862B862B862B8680872B862B862B8652
:1000D0002B862B862B862B862B8659872B862B8669
:1000E0002B862B862B862B862B862B862B862B8688
:1000F0009D8728866DAB70AB63AB67AB87AB87AB77
:1001000074AB78AB7EAB82ABA1AFA6AFABAFB5AFF4
:10011000E3AFE3AFBFAFC7AFCFAFD9AF084AD73B6D
:100120003BCE016E84BCBFFDC12F3D6C74319ABDC6
:1001300056833DDA3D00C77F11BED9E4BB4C3E91EA
:100140006BAAAABE000000803F05A84CCDB2D44ED9
:10015000B93836A9020C50B9918688083CA6AAAADB
:100160002ABE000000803F004E414E494E4954597E
:10017000494E46CDCCCC3D0AD7233C17B7D1387772
:10018000CC2B329595E6241FB14F0A000020410088
:1001900000C84200401C4620BCBE4CCA1B0E5AAED2
:1001A000C59D7400407A10F35A00A0724E180900E1
:1001B00010A5D4E80000E87648170000E40B5402CC
:1001C0000000CA9A3B000000E1F505000080969807
:1001D00000000040420F000000A086010000001057
:1001E0002700000000E80300000000640000000099
:1001F000000A00000000000100000000002C76D87A
:1002000088DC674F0823DFC1DFAE59E1B1B796E55F
:10021000E3E453C63AE651997696E8E6C28426EBC3
:10022000898C9B62ED407C6FFCEFBC9C9F40F2BAD6
:10023000A56FA5F490055A2AF75C936B6CF9676D6E
:10024000C11BFCE0E40D47FEF520E6B500D0ED90C3
:100250002E0300943577050080841E080000204E90
:100260000A000000C80C333333330F986E12831129
:1002700041EF8D2114893BE65516CFFEE6DB18D100
:10028000844B381BF77C1D901DA4BBE424203284D2
:10029000725E228100C9F124ECA1E53D27434F4D58
:1002A0004D554E49434154494F4E004452595255C1
:1002B0004E004552524F525300494E464F0045435F
:1002C000484F0047322F47332062616420706172CB
:1002D000616D65746572730A00536C6565702E2ECE
:1002E0002E00206F6620004D424C2047323920708E
:1002F0006F696E742000290A004A206F7574206FA0
:10030000662072616E67652028302D00290A004939
:10031000206F7574206F662072616E6765202830CB
:100320002D004D6573682070726F62696E6720647E
:100330006F6E652E0A005374617274206D65736868
:100340002070726F62696E67207769746820224737
:100350003239205331222066697273742E0A0047A5
:1003600032380A47323920533200686173206E6F89
:1003700020646174612E0A004D65736820426564D3
:10038000204C6576656C696E67200053206F75742C
:10039000206F662072616E67652028302D35292E0A
:1003A0000A004D65736820706F696E742063616E1A
:1003B0006E6F74206265207265736F6C7665640A77
:1003C00000436C69636B20746F20726573756D6593
:1003D0002E2E2E004E6F206D6F76652E00507269A6
:1003E0006E742074696D653A200046696C616D65B4
:1003F0006E7420757365643A200053746174733AA7
:1004000020002C204C6F6E67657374206A6F623A0F
:100410002000546F74616C2074696D653A2000533C
:10042000746174733A20002C204661696C65643AEB
:1004300020002C2046696E69736865643A2000507C
:1004400072696E74733A200053746174733A2000B9
:100450004520436F6F6C696E672E2E2E0045204835
:10046000656174696E672E2E2E006F666600BE028F
:10047000B902B202AB029D0244454255473A004DD3
:1004800031313320530042656420636F6F6C696EB5
:10049000672E2E2E004265642068656174696E6760
:1004A0002E2E2E006F6B0057414E48414F2049338E
:1004B000204F46462E004D4F54494F4E5F4D4F44FE
:1004C000455300544845524D414C5F50524F54459E
:1004D0004354494F4E004155544F5245504F52548A
:1004E0005F53445F53544154555300454D45524763
:1004F000454E43595F504152534552004341534585
:100500005F4C494748545F4252494748544E45530F
:100510005300544F47474C455F4C4947485453009C
:10052000534F4654574152455F504F574552004232
:1005300055494C445F50455243454E54004C455636
:10054000454C494E475F44415441005A5F50524F19
:100550004245004155544F4C4556454C0050524978
:100560004E545F4A4F420050524F4752455353003A
:100570004155544F5245504F52545F54454D5000D1
:10058000564F4C554D455452494300454550524FE6
:100590004D0053455249414C5F584F4E5F584F46AE
:1005A00046004649524D574152455F4E414D453AEE
:1005B0004D61726C696E206275676669782D322EA6
:1005C000302E7820284769746875622920534F556A
:1005D0005243455F434F44455F55524C3A687474EB
:1005E00070733A2F2F6769746875622E636F6D2F71
:1005F0004D61726C696E4669726D776172652F4DDF
:1006000061726C696E2050524F544F434F4C5F568D
:10061000455253494F4E3A312E30204D41434849BF
:100620004E455F545950453A57414E48414F204935
:10063000332045585452554445525F434F554E540C
:100640003A3120555549443A64393064633638614B
:100650002D303761392D343834372D386634332D09
:100660006235336134363361343232640A002F2FFD
:1006700020004D31343520533C696E6465783E204E
:100680006F7574206F662072616E67652028302D4B
:1006900031290A00205400205200416363656C65D3
:1006A000726174696F6E3A2050005741524E494E44
:1006B0004721204C6F77205A204A65726B206D616C
:1006C00079206C65616420746F20756E77616E743B
:1006D0006564207061757365732E0A004F4646008D
:1006E0004F4E00205A00205900580020204D6178BC
:1006F0003A2000205A00205900580020204D696EF1
:100700003A2000536F667420656E6473746F707363
:100710003A200020466C6F773A200050726F746563
:10072000637465642050696E0A00496E76616C6975
:10073000642065787472756465720A0020643A00FA
:1007400020693A0020703A0043290A0061626C6512
:100750006420286D696E2074656D702000436F6C95
:100760006420657874727564657320617265200019
:10077000504944204175746F74756E6520666169D7
:100780006C656421204261642065787472756465CB
:1007900072206E756D6265720A00454550524F4D6C
:1007A000204F4B0A00496E76616C6964206578744D
:1007B00072756465720A006F6B00456E6473746FC6
:1007C0007073202563202563202563202563002086
:1007D0005A3A0020593A0020583A00656E64737402
:1007E0006F7073206869743A20004572726F7220CE
:1007F00077726974696E6720746F20454550524F57
:100800004D210A000F150E1216170E1303021A14AB
:1008100001000E0C190DFF180C04000162757379AC
:100820003A2070617573656420666F7220696E701E
:1008300075740A00627573793A2070617573656426
:1008400020666F7220757365720A00627573793A5B
:100850002070726F63657373696E670A004B494C51
:100860004C2063617573656420627920746F6F201A
:100870006D75636820696E6163746976652074695B
:100880006D65202D2063757272656E7420636F6DC7
:100890006D616E643A2000506C656173652072650D
:1008A000736574005052494E5445522048414C548F
:1008B0004544004B494C4C45442E20005072696E13
:1008C0007465722068616C7465642E206B696C6C51
:1008D00028292063616C6C6564210A001FFFFFFFFB
:1008E000FFFFFF600000000001FF4000000000006B
:1008F000FF8000000000007F83CF00000C303F87A6
:10090000FF80000C301F867980000C000F8C30C7F0
:10091000838C30E78C30CFC7CC31F38C30DCECECFF
:1009200033B98C30D86C6C33198C30D06C0C3319D3
:100930008C30D86C0C33198C30DC6C0E3B198C303D
:10094000CF7C079F198C30C77C038F1940000000B3
:10095000000002600000000000061FFFFFFFFFFF15
:10096000F82020506C616E6E657242756666657225
:1009700042797465733A20002046726565204D65A2
:100980006D6F72793A2000436F6D70696C65643ADF
:10099000204A616E20323420323031390A00207C06
:1009A00020417574686F723A2050757472696420C2
:1009B00044756D700A00323031382D30312D3230AF
:1009C00000204C61737420557064617465643A2032
:1009D000006275676669782D322E302E780A004DD8
:1009E00061726C696E0020536F6674776172652066
:1009F00052657365740A00205761746368646F6799
:100A00002052657365740A002042726F776E206F02
:100A100075742052657365740A0020457874657298
:100A20006E616C2052657365740A00506F77657251
:100A300055700A0073746172740A006563686F3AD6
:100A4000004572726F723A0024F4D43050C38E2085
:100A5000C2A24017828B7011127A910D816CD90A53
:100A6000A861E108C7586607615143061E4B5D0542
:100A7000C145A7041A411104093D98037139310396
:100A80004036DB0265339102D4305402802E1D02C1
:100A9000632CEE01752AC501B028A0011027810141
:100AA0008F2564012B244B01E0223401AC211F016E
:100AB0008D200D01801FFC00841EED00971DDF00BE
:100AC000B81CD200E61BC600201BBC00641AB20092
:100AD000B219A8000A19A0006A189900D11791004C
:100AE00040178B00B516840031167E00B3157900CF
:100AF0003A157300C7146F0058146A00EE136600AD
:100B00008813630025135E00C7125B006C12570048
:100B100015125400C111510070114F0021114B00EA
:100B2000D61049008D1047004610440002104200C4
:100B3000C00F4000800F3E00420F3C00060F3B00FC
:100B4000CB0E3800930E37005C0E3500270E3400B4
:100B5000F30D3200C10D3100900D3000600D2E00FC
:100B6000320D2D00050D2C00D90C2B00AE0C2900E8
:100B7000850C29005C0C2700350C27000E0C260084
:100B8000E80B2400C40B2400A00B23007D0B2300E2
:100B90005A0B2100390B2100180B2000F80A1F0006
:100BA000D90A1E00BB0A1E009D0A1D00800A1D00F6
:100BB000630A1C00470A1B002C0A1B00110A1A00BA
:100BC000F7091A00DD091900C4091900AB09190059
:100BD000920917007B091800630917004C091600D9
:100BE00036091600200916000A091500F508150037
:100BF000E0081400CC081400B8081400A40814007D
:100C0000900813007D0812006B08130058081200AA
:100C100046081200340811002308110012081100C0
:100C200001081100F0071000E0071000D0071000C5
:100C3000C0071000B0070F00A107100091070E00B9
:100C400083070F0074070F0065070E0057070E009B
:100C500049070E003B070D002E070E0020070D0070
:100C600013070D0006070D00F9060C00ED060D0038
:100C7000E0060C00D4060C00C8060C00BC060C00F4
:100C8000B0060C00A4060B0099060C008D060B00A4
:100C900082060B0077060B006C060B0061060A004B
:100CA00057060B004C060A0042060A0038060A00E6
:100CB0002E060A0024060A001A060A001006090079
:100CC00007060A00FD050900F4050900EB05090007
:100CD000E2050900D9050900D0050900C70509008A
:100CE000BE050900B5050800AD050800A505090009
:100CF0009C050800940508008C0508008405080080
:100D00007C050800740508006C05070065050800EF
:100D10005D050700560508004E050700470507005A
:100D20004005080038050700310507002A050700BF
:100D3000230507001C050600160507000F05070020
:100D40000805060002050700FB040600F50407007D
:100D5000EE040600E8040600E2040700DB040600D7
:100D6000D5040600CF040600C9040600C30406002B
:100D7000BD040600B7040600B1040500AC0406007B
:100D8000A6040600A00405009B04060095040500C7
:100D9000900406008A04050085040500800406000E
:100DA0007A04050075040500700405006B04050055
:100DB00066040500610405005C0405005704050095
:100DC000520405004D0405004804050043040500D5
:100DD0003E0404003A040500350405003004040014
:100DE0002C04050027040400230405001E0404004D
:100DF0001A04040016040500110404000D04040084
:100E0000090405000404040000040400FC030400B9
:100E1000F8030400F4030400F0030400EC030400EE
:100E2000E8030400E4030400E0030400DC0304001E
:100E3000D8030400D4030400D0030400CC0304004E
:100E4000C8030300C503030024F404D9201BC40C09
:100E50005C0E9804C4095F0265077101F405F9008E
:100E6000FB04B30048048700C10369005803550020
:100E700003034500BE023A008402310053022A00F7
:100E80002902250004022000E4011C00C801190009
:100E9000AF011700980114008401130071011000C4
:100EA0006101100051010E0043010D0036010B00DD
:100EB0002B010B0020010B00150109000C0109009A
:100EC00003010800FB000800F3000800EB00070026
:100ED000E4000600DE000600D8000600D20006008E
:100EE000CC000500C7000500C2000500BD000400DD
:100EF000B9000400B5000400B1000400AD00040016
:100F0000A9000400A5000300A20003009F00040044
:100F10009B0003009800030095000200930003006B
:100F2000900003008D0002008B0003008800020087
:100F30008600020084000300810002007F0002009E
:100F40007D0002007B0002007900020077000100B2
:100F500076000200740002007200010071000200BD
:100F60006F0002006D0001006C0002006A000100C9
:100F700069000200670001006600010065000100D1
:100F800064000200620001006100010060000100D5
:100F90005F0002005D0001005C0001005B000100D9
:100FA0005A000100590001005800010057000100DB
:100FB00056000100550001005400010053000000DC
:100FC00053000100520001005100010050000100D7
:100FD0004F0001004E0000004E0001004D000100D6
:100FE0004C0001004B0000004B0001004A000100D2
:100FF00049000100480000004800010047000100CE
:1010000046000000460001004500000045000100C8
:1010100044000100430000004300010042000000C2
:1010200042000100410000004100010040000100B9
:101030003F0000003F0001003E0000003E000100B4
:101040003D0000003D0001003C0000003C000000AD
:101050003C0001003B0000003B0001003A000000A2
:101060003A0001003900000039000100380000009A
:101070003800000038000100370000003700010090
:101080003600000036000000360001003500000088
:10109000350000003500010034000000340000007D
:1010A0003400010033000000330000003300010071
:1010B0003200000032000000320001003100000068
:1010C000310000003100010030000000300000005D
:1010D000300001002F0000002F0000002F00000052
:1010E0002F0001002E0000002E0000002E00010045
:1010F0002D0000002D0000002D0000002D0001003B
:101100002C0000002C0000002C0000002C0001002E
:101110002B0000002B0000002B0000002B00010022
:101120002A0000002A0000002A0000002A00010016
:10113000290000002900000029000000290000000B
:1011400029000100280000002800000028000000FD
:1011500028000000280001002700000027000000F0
:1011600027000000270000002700010026000000E3
:1011700026000000260000002600000026000100D6
:1011800025000000250000002500000025000000CB
:1011900025000000250001002400000024000000BC
:1011A00024000000240000002400010023000000AF
:1011B00023000000230000002300000023000000A3
:1011C0002300000023000100220000002200000094
:1011D0002200000022000000220000002200010086
:1011E000210000002100000021000000210000007B
:1011F000210000002100000021000100200000006B
:10120000200000002000000020000000200000005E
:101210002000000020000000200001001F0000004E
:101220001F0000001F0000001F0000001F00000042
:101230001F0000001F0001001E0000001E00000033
:101240001E0000001E0000003930000033250000A1
:1012500087190000B00F0000DB080000BD0400008B
:10126000740200003F0100000A4D656173757265EC
:101270006420706F696E74733A0A004F46460A0024
:10128000466164652048656967687420004265644A
:10129000204C6576656C696E6720004661696C65F7
:1012A0006420746F20656E61626C65204265642005
:1012B0004C6576656C696E670A004D6573682042FF
:1012C0006564204C6576656C20646174613A0A003F
:1012D000496E76616C6964206D6573682E0A002022
:1012E0006E6F7420656E74657265642E0A004D65BC
:1012F000736820706F696E742063616E6E6F742006
:101300006265207265736F6C7665640A004D3432D5
:101310003120696E636F72726563742070617261EF
:101320006D657465722075736167650A0000004819
:101330004300004843000034430000000000000068
:101340000000000000290A002062797465733B20C8
:10135000637263200053657474696E6773205374FD
:101360006F726564202800454550524F4D206461DE
:10137000746173697A65206572726F722E0A002932
:101380000A002062797465733B2063726320002039
:1013900073746F7265642073657474696E6773200B
:1013A000726574726965766564202800202863611F
:1013B0006C63756C6174656429210A0020213D20ED
:1013C00000454550524F4D20435243206D69736D87
:1013D00061746368202D202873746F7265642920FE
:1013E000002053697A653A2000496E6465783A2096
:1013F00000204D61726C696E3D563633290A002813
:10140000454550524F4D3D00454550524F4D207679
:10141000657273696F6E206D69736D6174636820A6
:101420000023646566696E652044454641554C5409
:101430005F004B6420004B6920004B702000504936
:1014400044204175746F74756E652066696E6973AA
:10145000686564212050757420746865206C617320
:1014600074204B702C204B6920616E64204B6420EB
:10147000636F6E7374616E74732066726F6D206239
:10148000656C6F7720696E746F20436F6E66696755
:1014900075726174696F6E2E680A0050494420416C
:1014A00075746F74756E65206661696C6564212062
:1014B00074696D656F75740A004531205448455252
:1014C0004D414C2052554E41574159004245442010
:1014D000544845524D414C2052554E4157415900B8
:1014E000546865726D616C2052756E617761790028
:1014F00045312048656174696E67206661696C6575
:1015000064004265642068656174696E6720666185
:10151000696C65640048656174696E67206661691D
:101520006C656400504944204175746F74756E6534
:10153000206661696C6564212054656D7065726117
:101540007475726520746F6F20686967680A00207F
:101550004B643A2000204B693A2000204B703A201F
:10156000000A20436C617373696320504944200A68
:10157000002054753A2000204B753A2000206D6100
:10158000783A2000206D696E3A200020643A2000ED
:1015900020626961733A2000504944204175746F9C
:1015A00074756E652073746172740A00504944202A
:1015B0004175746F74756E65206661696C65642130
:1015C0002054656D706572617475726520746F6FFB
:1015D00020686967680A006265640A002C207379D4
:1015E0007374656D2073746F707065642120486535
:1015F000617465725F49443A200042656420686501
:101600006174696E67206661696C65640048656134
:1016100074696E67206661696C65640045312048B5
:10162000656174696E67206661696C656400486510
:101630006174696E67206661696C656400202D20A5
:10164000496E76616C696420657874727564657240
:10165000206E756D62657220210A0070012C019068
:10166000012701B0012201C0011D01F00118011084
:1016700002130130020E016002090190020401C050
:1016800002FF000003FA004003F5008003F000D0E1
:1016900003EB002004E6007004E100E004DC0040FD
:1016A00005D700C005D2004006CD00D006C8008096
:1016B00007C3003008BE00F008B900C009B400B08C
:1016C0000AAF00B00BAA00D00CA500000EA000507D
:1016D0000F9B00C01096005012910000148C00C0A7
:1016E000158700B0178200B0197D00D01B7800006C
:1016F0001E730040206E0090226900F024640040B8
:10170000275F0090295A00E02B5500102E50002032
:10171000304B0010324600E033410090353C001061
:1017200037370070383200A0392D00B03A2800A0B9
:101730003B2300603C1E00103D1900903D1400103A
:101740003E0F00703E0A00C03E0500003F00004012
:101750003FFBFF803FF6FFC03FF1FF45312054487B
:1017600045524D414C2052554E415741590042453A
:101770004420544845524D414C2052554E4157410A
:101780005900546865726D616C2052756E617761A5
:1017900079004531204572723A204D415854454DEB
:1017A00050004572723A204D415854454D502042E8
:1017B0004544004D415854454D5020747269676747
:1017C00065726564004531204572723A204D494E7C
:1017D00054454D50004572723A204D494E54454D86
:1017E0005020424544004D494E54454D502074729E
:1017F0006967676572656400202F002042403A00E7
:1018000020403A0020496E76616C696420657874E6
:1018100072756465722000486F6D652025732573AD
:101820002573206669727374002066697273740A86
:10183000005A0059005800486F6D6520004F6666D9
:1018400073657473206170706C69656400457272B1
:101850003A20546F6F206661722100546F6F2066CA
:1018600061722066726F6D207265666572656E6367
:101870006520706F696E740A004361703A00656E8E
:101880007175657565696E67202200526573656EB6
:10189000643A200053544F505045442E200050725B
:1018A000696E7465722073746F70706564206475FE
:1018B0006520746F206572726F72732E204669788E
:1018C00020746865206572726F7220616E64207585
:1018D0007365204D39393920746F207265737461D6
:1018E00072742E202854656D70657261747572650E
:1018F0002069732072657365742E205365742069A6
:1019000074206166746572207265737461727469A3
:101910006E67290A004E6F20436865636B73756DAF
:101920002077697468206C696E65206E756D6265DC
:10193000722C204C617374204C696E653A200063F0
:101940006865636B73756D206D69736D6174636831
:101950002C204C617374204C696E653A20004C69F0
:101960006E65204E756D626572206973206E6F74AE
:10197000204C617374204C696E65204E756D6265F4
:10198000722B312C204C617374204C696E653A20A7
:10199000004D313130002569730025696D202569BE
:1019A00073002569682025696D2025697300256904
:1019B00064202569682025696D20256973002569E3
:1019C0007920256964202569682025696D202569AD
:1019D00073004572723A207574663820666F6E74B3
:1019E000206E6F7420696E697469616C697A6564D0
:1019F0002E004572723A207574663820666F6E74D8
:101A0000206E6F7420696E697469616C697A6564AF
:101A10002E0030484830202020200025753A2530FF
:101A2000327500253032753A2530327500457272B4
:101A30003A207574663820666F6E74206E6F74205D
:101A4000696E697469616C697A65642E00446973B2
:101A500061626C65207374657070657273004D38D7
:101A60003400426564204C6576656C696E670041A0
:101A700075746F20686F6D6500473238004D6F7662
:101A8000652061786973004D61696E005072656808
:101A900065617420504C4120426564005072656855
:101AA00065617420504C4120456E64005072656839
:101AB00065617420504C410054656D7065726174AD
:101AC00075726500507265686561742041425320EB
:101AD000426564005072656865617420414253201C
:101AE000456E640050726568656174204142530020
:101AF00054656D70657261747572650050726568C9
:101B000065617420414253005072656865617420BC
:101B1000504C4100436F6F6C646F776E0046616E8E
:101B20002073706565640046616E2073706565643E
:101B30000042656400426564004E6F7A7A6C65000D
:101B40004E6F7A7A6C65004D61696E00466C6F77F6
:101B500000466C6F770046616E20737065656400A7
:101B600046616E207370656564004265640042657D
:101B700064004E6F7A7A6C65004E6F7A7A6C6500FD
:101B8000426564205A00426564205A0053706565BE
:101B900064005370656564004D61696E0000004823
:101BA00042000048420000804000000000556E6B7B
:101BB0006E6F776E20636F6D6D616E643A202200E8
:101BC00020746F6F206C6F6E672065787472757308
:101BD000696F6E2070726576656E7465640A0020A8
:101BE000636F6C6420657874727573696F6E2070B2
:101BF000726576656E7465640A004573746570730A
:101C00002F6D6D004573746570732F6D6D005A7381
:101C1000746570732F6D6D005A73746570732F6DDA
:101C20006D005973746570732F6D6D005973746511
:101C300070732F6D6D005873746570732F6D6D0028
:101C40005873746570732F6D6D00416476616E63B7
:101C500065642053657474696E677300496E6974B6
:101C600069616C697A6520454550524F4D00416469
:101C700076616E6365642053657474696E67730082
:101C80004D34323800496E697469616C697A652037
:101C9000454550524F4D0046696C616D656E74004C
:101CA00054656D706572617475726500537465700A
:101CB000732F6D6D004A65726B00416363656C65DF
:101CC000726174696F6E0056656C6F636974790038
:101CD00053657420686F6D65206F666673657473F5
:101CE00000436F6E66696775726174696F6E004C50
:101CF0006576656C696E6720446F6E6521004D6F77
:101D00007665205A00473239205332004E65787488
:101D100020506F696E74002569202F2025750047BB
:101D200032392053310047323920533200436C6935
:101D3000636B20746F20426567696E00486F6D6940
:101D40006E672058595A00473238005A2056616C45
:101D50007565005A2056616C756500496E6465783A
:101D6000205900496E646578205900496E64657891
:101D7000205800496E646578205800426564204C04
:101D80006576656C696E67006F70656E00545249C8
:101D9000474745524544003A20007A5F6D696E001E
:101DA000795F6D696E00785F6D696E005265706F66
:101DB0007274696E6720656E6473746F70207374DB
:101DC000617475730A00205A3A0020593A00204382
:101DD0006F756E7420583A0020453A00205A3A0038
:101DE00020593A00583A0020746F6F206C6F6E676C
:101DF00020657874727573696F6E20707265766590
:101E00006E7465640A0020636F6C64206578747278
:101E10007573696F6E2070726576656E7465640A9D
:101E200000486F6D696E67206661696C65640000CB
:101E300000000000000000000000005761726E69A1
:101E40006E673A20486F6D696E672042756D70202D
:101E500044697669736F72203C20310A00020204E3
:101E60000000A0400000A0400000004000004843E7
:101E70000000484300003443FFFFFF000000010062
:101E8000000001000080005555550000004000335F
:101E9000333300AAAA2A004992240000002000C778
:101EA000711C0099991900D1451700555515003B33
:101EB000B113002449120011111100000010000F8D
:101EC0000F0F00E3380E0043790D00CCCC0C00C39B
:101ED000300C00E8A20B0064210B00AAAA0A0070D3
:101EE0003D0A009DD80900427B090092240900DCCC
:101EF000D30800888808001042080000000800F09D
:101F0000C107008787070075500700711C07003E56
:101F1000EB0600A1BC06006990060066660600702C
:101F20003E06006118060017F4050074D105005B39
:101F3000B00500B2900500627205005555050078A5
:101F4000390500B81E0500050505004EEC040087A4
:101F5000D40400A1BD040090A7040049920400C16C
:101F60007D0400EE690400C7560400444404005C8C
:101F70003204000821040041100400000004003F66
:101F8000F00300F8E0030026D20300C3C30300CC33
:101F9000B503003AA803000A9B0300388E0300C073
:101FA0008103009F750300D0690300505E03001D8C
:101FB00053030034480300913D03003333030016FC
:101FC000290300381F030097150300300C0300039A
:101FD0000303000BFA020049F10200BAE802005CB8
:101FE000E002002DD802002DD0020059C80200B036
:101FF000C0020031B90200DAB10200AAAA0200A0B0
:10200000A30200BC9C0200FA9502005C8F0200DF74
:1020100088020082820200457C02002776020027A7
:10202000700200436A02007C640200D05E02003F3E
:10203000590200C85302004D61782054656D703A12
:1020400020313130004D696E2054656D703A203575
:1020500000544265643A4550434F53203130304B71
:10206000004D61782054656D703A20323630004D55
:10207000696E2054656D703A20350054303A204521
:1020800050434F53203130304B005053553A204786
:10209000656E657269630050726F746F636F6C3A3E
:1020A00020312E3000426175643A203235303030B4
:1020B00030004D656C7A69004D657368204C65761B
:1020C000656C696E67004578747275646572733A01
:1020D000203100687474703A2F2F6D61726C696ED4
:1020E00066772E6F72670057414E48414F20493343
:1020F00000323031382D30312D3230006275676654
:1021000069782D322E302E78004D61726C696E0028
:102110005072696E746572205374617473005468F0
:1021200065726D6973746F727300426F61726420BF
:10213000496E666F005072696E74657220496E66F2
:102140006F004D61696E00436F6E666967757261FD
:1021500074696F6E0054656D706572617475726537
:10216000004D6F74696F6E00526573756D652070F8
:1021700072696E740041626F7574205072696E747A
:1021800065720054756E65005061757365207072DC
:10219000696E7400496E666F2073637265656E00C8
:1021A0004D6F76652058004D6F76652059004D6F54
:1021B0007665205A004578747275646572004578BA
:1021C000747275646572004D6F7665205A004D6FAC
:1021D00076652059004D6F76652058004D6F746903
:1021E0006F6E000000007E006000600060F87ECC32
:1021F00060CC60CC60F860CC00CC00CC00CC00009F
:1022000000000000000000000000000000000000CE
:10221000000000000000000000FE7FFE7F0660005E
:1022200000000000000000F00FF81FF81FF81FF07A
:102230000FF00FF81FF81FF81FE007C00380010020
:102240000000000000FE7F0E702664724E7A5E323F
:102250004C8241324C7A5E724E26640E70FE7F00D4
:102260000000000000FE7F0E70C663C24382411A68
:1022700058BA5D1A588241C243C6630E70FE7F0091
:102280000000000000880888081011202220221079
:1022900011880888081011000000000000000000EC
:1022A000000000000020221011880888081011206A
:1022B0002220221011880800000000000000000009
:1022C00000000057414E48414F204933205265617C
:1022D00064792E005072696E74696E672E2E2E001E
:1022E0005072696E74207061757365640056547223
:1022F0006176206D696E005654726176206D696E4C
:1023000000566D696E00566D696E00566D617820DD
:102310004500566D6178204500566D6178205A0061
:10232000566D6178205A00566D6178205900566DBF
:102330006178205900566D6178205800566D61789B
:10234000205800416476616E63656420536574743F
:10235000696E677300416D6178204500416D617859
:10236000204500416D6178205A00416D6178205A06
:1023700000416D6178205900416D6178205900411C
:102380006D6178205800416D6178205800412D74AE
:10239000726176656C00412D74726176656C0041E6
:1023A0002D7265747261637400412D72657472617F
:1023B000637400416363656C00416363656C004155
:1023C0006476616E6365642053657474696E6773C7
:1023D0000056652D6A65726B0056652D6A65726BD5
:1023E00000567A2D6A65726B00567A2D6A65726B9B
:1023F0000056792D6A65726B0056792D6A65726B8D
:102400000056782D6A65726B0056782D6A65726B7E
:1024100000416476616E6365642053657474696E0F
:10242000677300FFFDFCFAF8F6F4F2F0EEECEAE96F
:10243000E7E5E3E1E0DEDCDAD9D7D5D4D2D0CFCD01
:10244000CBCAC8C7C5C3C2C0BFBDBCBAB9B7B6B492
:10245000B3B2B0AFADACAAA9A8A6A5A4A2A1A09EF4
:102460009D9C9A99989795949392908F8E8D8B8A34
:102470008988878684838281807F7E7D7B7A797854
:1024800077767574737271706F6E6D6C6B6A696854
:1024900067666564636261605F5E5D5C5B5A595844
:1024A000585756555453525150504F4E4D4C4B4A1D
:1024B0004A4948474646454443424241403F3E3EE2
:1024C0003D3C3B3B3A393838373635353433323298
:1024D0003130302F2E2E2D2C2B2B2A29292827273F
:1024E00026252524232322212120201F1E1E1D1CDA
:1024F0001C1B1B1A19191818171616151514131367
:1025000012121111100F0F0E0E0D0D0C0C0B0A0AEA
:102510000909080807070606050504040303020263
:1025200001000046696C2E204469612E0046696CEA
:102530002E204469612E004F6666004F6E004520D4
:10254000696E206D6D5E3300416476616E63656413
:102550002053657474696E6773004D3330332055B2
:102560003120452569205325690050494420417593
:10257000746F74756E6500504944204175746F74B2
:10258000756E65005049442D44005049442D440067
:102590005049442D49005049442D49005049442D8B
:1025A00050005049442D50002008204661637400BB
:1025B00020082046616374002008204D61780020C7
:1025C00008204D6178002008204D696E0020082009
:1025D0004D696E004F6666004F6E004175746F74F2
:1025E000656D7000416476616E6365642053657447
:1025F00074696E67730053746F72652073657474C9
:10260000696E6773004C6F61642073657474696EE2
:10261000677300426564205A00426564205A004690
:102620006164652048656967687400466164652077
:10263000486569676874004F6666004F6E004265C2
:1026400064204C6576656C696E670045646974202A
:102650004D657368004C6576656C20626564004D5D
:102660006F74696F6E0053746F7265207365747454
:10267000696E67730042656400426564004E6F7A5C
:102680007A6C65004E6F7A7A6C650046616E2073D5
:10269000706565640046616E207370656564004313
:1026A0006F6E66696775726174696F6E004C6F61F9
:1026B000642073657474696E677300526573746F18
:1026C0007265206661696C736166650053746F7230
:1026D000652073657474696E677300507265686510
:1026E00061742041425320636F6E660050726568CA
:1026F00065617420504C4120636F6E6600416476C2
:10270000616E6365642053657474696E6773004D10
:1027100061696E0000457874727564656420746F39
:1027200074616C3A2000256C642E25696D00004CA4
:102730006F6E67657374206A6F622074696D653AA5
:10274000200000546F74616C207072696E74207484
:10275000696D653A2000436F6D706C657465643A0D
:1027600020005072696E7420436F756E743A2000B9
:1027700000002100240027002A000000220025007C
:1027800028002B0000002000230026002900020260
:102790000202020202020404040404040404030307
:1027A000030303030303010101010101010101020C
:1027B000040810204080010204081020408001021B
:1027C000040810204080804020100804020100000E
:1027D00000010200090A00000000040308070000CD
:1027E00000000000000000000000000000004D6F2D
:1027F000766520302E316D6D004D6F766520316D20
:102800006D004D6F76652031306D6D004D6F7665D2
:10281000206178697300486F74656E6420746F6F0F
:1028200020636F6C64004578747275646572004D46
:102830006F7665205A004D6F76652059004D6F7692
:102840006520580020573A0020573A00022533648B
:102850000000060C00FE07022603BC017FFE08FEF6
:1028600008FE05080806000040F0C888889878101F
:10287000050808060000C0F88888888888F80505DB
:10288000050600012030F830200508080600002069
:1028900070F820202020E00509090600FF2070A81C
:1028A000A8B888887020050606060001E08CEA8C2E
:1028B0008A0A0509090600FFF8A88888888888A878
:1028C000F8050A0A0600FE205050505088A8A88833
:1028D0007003030306000340A040FFFFFFFFFFFF5C
:1028E000FFFFFFFFFFFFFFFFFFFFFFFFFFFFFFFFF8
:1028F0000000000605FF01070706020080808080B7
:10290000800080030303060105A0A0A005060606BB
:10291000000050F85050F8500509090600FF2070DB
:10292000A8A07028A87020050707060000C8C810D6
:102930002040989805070706000040A0A040A890F6
:10294000680103030602058080800309090601FF70
:102950002040408080804040200309090601FF801C
:10296000404020202040408005070706000020A8A6
:10297000702070A8200505050600012020F8202001
:102980000203030601FFC04080050101060003F8B1
:10299000020202060100C0C0050707060000081079
:1029A0001020404080050707060000708898A8C8DE
:1029B000887003070706010040C040404040E00522
:1029C0000707060000708808102040F80507070672
:1029D0000000F8081030088870050707060000108E
:1029E000305090F81010050707060000F880F00836
:1029F000088870050707060000304080F08888705E
:102A0000050707060000F80810102020200507071A
:102A10000600007088887088887005070706000027
:102A200070888878081060020505060100C0C000A3
:102A3000C0C00206060601FFC0C000C040800305FA
:102A4000050601012040804020050303060002F82E
:102A500000F80305050601018040204080050707B6
:102A600006000070881020200020050707060000DF
:102A70007088B8A8B88070050707060000708888BD
:102A8000F8888888050707060000F048487048481D
:102A9000F0050707060000708880808088700507B1
:102AA00007060000F04848484848F00507070600B8
:102AB00000F88080F08080F8050707060000F880A5
:102AC00080F080808005070706000070888080986D
:102AD0008870050707060000888888F888888803BA
:102AE0000707060100E04040404040E005070706B8
:102AF00000003810101010906005070706000088CD
:102B000090A0C0A090880507070600008080808004
:102B10008080F805070706000088D8A8888888887C
:102B20000507070600008888C8A898888805070751
:102B300006000070888888888870050707060000EE
:102B4000F08888F08080800507070600007088887C
:102B500088A89068050707060000F08888F0A09014
:102B600088050707060000708880700888700507D0
:102B700007060000F8202020202020050707060077
:102B8000008888888888887005070706000088887C
:102B9000888850502005070706000088888888A884
:102BA000A85005070706000088885020508888052F
:102BB0000707060000888850202020200507070608
:102BC0000000F80810204080F80309090601FFE022
:102BD00080808080808080E00507070600008040BC
:102BE00040201010080309090601FFE020202020E2
:102BF000202020E005030306000520508805010180
:102C00000600FEF8030303060105804020050505C4
:102C100006000070087888780507070600008080A5
:102C2000F0888888F00505050600007080808870AF
:102C300005070706000008087888888878050505D4
:102C40000600007088F08070050707060000304815
:102C500040E04040400507070600FE7088888878FD
:102C600008700507070600008080F08888888803C0
:102C700007070601004000C0404040E00409090683
:102C800001FE1000301010101090600507070600BC
:102C90000080808890E09088030707060100C0400C
:102CA00040404040E0050505060000D0A8A8A8A8BF
:102CB000050505060000B0C88888880505050600DA
:102CC0000070888888700507070600FEF0888888ED
:102CD000F080800507070600FE7888888878080855
:102CE000050505060000B0C88080800505050600C2
:102CF0000078807008F00507070600002020F82003
:102D000020201805050506000088888898680505B4
:102D10000506000088888850200505050600008803
:102D200088A8A85005050506000088502050880591
:102D300007070600FE8888885020408005050506A4
:102D40000000F8102040F80309090601FF20404068
:102D50004080404040200109090602FF80808080B9
:102D600080808080800309090601FF804040402068
:102D70004040408005030306000248A890FF4861D8
:102D80007264636F6465642044656661756C742069
:102D900053657474696E6773204C6F616465640A6F
:102DA00000BC020000BC020000640000001027000C
:102DB0000000009643000096430000A0400000C8B9
:102DC000410000A0420000A0420000C8430000C82B
:102DD0004220440020490020204D33303120500053
:102DE0005049442073657474696E67733A0A002011
:102DF000460020420020480020204D313435205329
:102E0000004D6174657269616C20686561747570EC
:102E100020706172616D65746572733A0A002059A1
:102E2000002020473239205333205800205A0020F8
:102E3000204D3432302053004D6573682042656464
:102E4000204C6576656C696E673A0A00205A00204E
:102E5000590020204D323036205800486F6D6520D3
:102E60006F66667365743A0A00204500205A002098
:102E7000590020580020540020530020204D3230AB
:102E80003520420020453C6D61785F655F6A657260
:102E90006B3E0020583C6D61785F785F6A65726BAD
:102EA0003E20593C6D61785F795F6A65726B3E20A8
:102EB0005A3C6D61785F7A5F6A65726B3E0041646F
:102EC00076616E6365643A20423C6D696E5F73653E
:102ED000676D656E745F74696D655F75733E2053D1
:102EE0003C6D696E5F66656564726174653E205411
:102EF0003C6D696E5F74726176656C5F6665656472
:102F0000726174653E0020540020520020204D3232
:102F10003034205000416363656C65726174696F81
:102F20006E2028756E6974732F7332293A20503CD5
:102F30007072696E745F616363656C3E20523C72AF
:102F40006574726163745F616363656C3E20543CB9
:102F500074726176656C5F616363656C3E0A002024
:102F60004500205A0020590020204D323031205891
:102F7000004D6178696D756D20416363656C6572A4
:102F80006174696F6E2028756E6974732F733229AE
:102F90003A0A00204500205A0020590020204D32D6
:102FA00030332058004D6178696D756D2066656518
:102FB0006472617465732028756E6974732F732948
:102FC0003A0A00204500205A0020590020204D399F
:102FD0003220580053746570732070657220756ECE
:102FE00069743A0A0020204D3230302044300A0003
:102FF00020204D3230302044002044697361626CDF
:1030000065640A0046696C616D656E742073657451
:1030100074696E67733A0020204D313439204320A3
:103020003B20556E69747320696E2043656C73692B
:1030300075730A0020286D6D290020204732312049
:103040002020203B20556E69747320696E206D6DC1
:10305000000028D611241FBECFEFD0E4DEBFCDBFC5
:1030600012E0A0E0B1E0ECEEFBEC01E00BBF02C02F
:1030700007900D92A036B107D9F72FE0A0E6B2E095
:1030800001C01D92A93DB207E1F718E1CAE2D8E1FB
:1030900004C02197FE010E9487E5C932D107C9F714
:1030A0000E949DBD0C94F4E50C940000FF920F93D8
:1030B0001F93CF93DF931F92CDB7DEB7F82E04E0B6
:1030C00018E041E050E0B801CE0101960E94C6DA56
:1030D00089818F1102C081E007C00F5F1F4F88E018
:1030E0000C31180771F780E00F90DF91CF911F919D
:1030F0000F91FF9008958F929F92AF92BF92CF92BF
:10310000DF92EF92FF920F93CF93DF931F92CDB791
:10311000DEB75C016B017A014901F5018081918183
:103120000E94B1E18983002311F0F6018083BE0182
:103130006F5F7F4FC4010E94B8B6F5018081918115
:10314000019691838083FFEFCF1ADF0A81E0E81AAE
:10315000F10819F780E00F90DF91CF910F91FF9068
:10316000EF90DF90CF90BF90AF909F908F90089599
:103170009091C00095FFFCCF8093C6000895CF9337
:10318000DF93FC018491EF012196882321F00E94B6
:10319000B818FE01F7CFDF91CF9108950F931F93D9
:1031A000CF93DF938B010E94BF18E8018991882398
:1031B00019F00E94B818FACFDF91CF911F910F91AB
:1031C000089581E49AE00C94BF188BE39AE00C9484
:1031D000BF18EC010E9407400E94E1188CEB98E0B8
:1031E0000E94BF18209711F4C3EBD8E00E94D1923F
:1031F00061E0CE010E94378E0E940D880E942858FF
:103200000E9433580E94704C86E20E94094C8091C3
:103210007F0D8460886080937F0D0E942158C0914B
:10322000610EC695C6958CE59EE00E9449B8DC2FDC
:10323000DD0F1D2F1C0F0E943BB81092970EC093FC
:10324000980E6FEF7FEF89EC96E00E94BA4D1092D6
:10325000970ED093980E84EA98E00E9484551092BD
:10326000970E1093980E87E998E00E94845580E6A7
:103270009EE00E94D0B68111DECF89EE93E030E669
:10328000019729F0232F2A950000E9F7F9CFF89448
:1032900089EE93E038EE019729F0232F2A9500005C
:1032A000E9F7F9CF0E940740A895FECF7F928F9251
:1032B0009F92AF92BF92CF92DF92EF92FF920F93C5
:1032C0001F93CF93DF931F92CDB7DEB77C015901D7
:1032D0008B016B01C40ED51E0C151D0559F1F701AC
:1032E00080809180F80171908F017982C4010E94E1
:1032F000B1E1781691F0672DC4010E94B9E1C401D3
:103300000E94B1E19981891741F00E94E5188AEE87
:1033100097E00E94BF1881E00EC0BE016F5F7F4F33
:10332000C5010E94B8B6F701808191810196918311
:103330008083D2CF80E00F90DF91CF911F910F91CA
:10334000FF90EF90DF90CF90BF90AF909F908F90C5
:103350007F9008957F928F929F92AF92BF92CF926B
:10336000DF92EF92FF920F931F93CF93DF9300D0E2
:1033700000D01F92CDB7DEB71092C0008091C00080
:1033800082608093C0001092C50087E08093C400E3
:103390008091C10080618093C1008091C1008860EC
:1033A0008093C1008091C10080688093C1000E9419
:1033B00026B084E39AE00E94BF180E94E51814B773
:1033C00010FF04C08BE29AE00E94BF1811FF04C0F6
:1033D0008AE19AE00E94BF1812FF04C088E09AE0D8
:1033E0000E94BF1813FF04C087EF99E00E94BF1826
:1033F00015FF04C086EE99E00E94BF1814BE8FED41
:1034000099E00E94BF1880E20E94B81881ED99E00F
:103410000E94BF188AE00E94B8180E94E51881EC4B
:1034200099E00E94BF1886EB99E00E94BF188EE9D0
:1034300099E00E94BF180E94E51887E899E00E9471
:10344000BF180E94E5188091D30F9091D40F9E0170
:103450002F5F3F4F7901009721F4C901895D9F409B
:1034600004C0F901E81BF90BCF019A8389836981B4
:103470007A8188E799E00E94B03460EB75E081E6DC
:1034800099E00E94B0348AE00E94B81881E08093ED
:103490004D0380934E0380934F03809350030E940B
:1034A00028BA8CE0E8E1F3E0A1E0BEE001900D92E3
:1034B0008A95E1F70E941D7D559A5D98549A5C9813
:1034C000249A87ED80937A0010927E0080917E008E
:1034D000806880937E0080917E00806480937E006F
:1034E00080E888BD80916E00846080936E006AEFF2
:1034F00070E080E090E00E94ECAF85E090E0909377
:103500006A058093690560E0809120019091210116
:103510000E94694320E030E040EA50E40E9481DBF1
:1035200087FF0AC0809120019091210140979093DC
:10353000210180932001E7CF84E091E09093460140
:103540008093450160E080916E0590916F050E9427
:10355000694320E030E042E853E40E9474E4181626
:1035600054F480916E0590916F05409690936F058D
:1035700080936E05E7CF80911E0190911F010E94FC
:10358000D54220E030E040EA50E40E9481DB87FF32
:103590000AC080911E0190911F01409790931F01D6
:1035A00080931E01E8CF80916C0590916D050E947B
:1035B000D54220E030E04CED52E40E9474E418164D
:1035C00054F480916C0590916D05409690936D0533
:1035D00080936C05E8CF0E94B38A1D8282E390E05D
:1035E0009C838B831A82198201E0970141E050E0AD
:1035F000BE016B5F7F4FCE0103960E947B188D81C9
:10360000863119F00E94379B10C083E390E09C83C1
:103610008B831A82198201E0970140E150E06AED44
:1036200072E0CE0103960E947B1881E08093AD0D7D
:103630003A98429A3B98439A3C98449A10920403D1
:10364000109203030E941A7F3D9A3F9A229A209A71
:10365000569A5E9A569A5E9A0D9A159A569A5E9A5C
:10366000579A5F985E9A8091FE028E7F8093FE0249
:103670003E9A46985E9A8091FE028D7F8093FE026C
:10368000239A2B98159A8091FE028B7F8093FE02DD
:10369000219A29985E9A809180008C7F8093800087
:1036A00080918100877E8860809381008091800076
:1036B0008F738093800080918100887F82608093E7
:1036C000810080E090E490938900809388001092BC
:1036D00085001092840080916F00826080936F005B
:1036E00078940E94E5990E94D1920E94738E009175
:1036F000600ED090610E10E0B8016853710977FF39
:1037000002C06F5F7F4F75956795E62E8CE59EE052
:103710000E9449B8C8018854910996958795F82E5A
:103720000C56110916950795102F5EEE752E7D0C1F
:10373000FAEFDF0E03E128E34CE06E2D80E69EE019
:103740000E94AAB2882361F18CED882E88E0982E21
:103750009CE0C92E540100E0F50184916091620E55
:103760007091630E9E2D900F90937C0EC0927D0EF3
:1037700010927F0E80937E0E2CE73EE04BE380E6B6
:103780009EE00E9478B1FFEFAF1ABF0A085F0833CE
:1037900019F727E0820E911CC3943FE1C312DACFE0
:1037A0000E943BB821E132E0472D6F2D80E69EE07C
:1037B0000E943BB32EE132E04D2D612F80E69EE06A
:1037C0000E943BB380E69EE00E94D0B68111B2CF4A
:1037D00064EC79E080E090E00E947B3498E288E13C
:1037E0000FB6F894A895809360000FBE9093600088
:1037F0000F900F900F900F900F90DF91CF911F912E
:103800000F91FF90EF90DF90CF90BF90AF909F907F
:103810008F907F9008952F923F924F925F926F9278
:103820007F928F929F92AF92BF92CF92DF92EF9250
:10383000FF920F931F93CF93DF93CDB7DEB72797F8
:103840000FB6F894DEBF0FBECDBF0E94AC8F0E94B2
:1038500026B06B017C0180910301882359F180918E
:103860005403882339F14091ED045091EE046091A6
:10387000EF047091F00497018601041B150B260BD1
:10388000370B37FD2AC0833079F03CF4813094F057
:103890000E94E5188BE498E00BC0843059F40E9434
:1038A000E5188CE198E004C00E94E51884E398E0F4
:1038B0000E94BF182091030130E0A8EEB3E00E94FF
:1038C00004E2C60ED71EE81EF91EC092ED04D09287
:1038D000EE04E092EF04F092F0048091D70484307B
:1038E00030F40E949F50811102C00E943B4F0E9401
:1038F00026B06B017C014091FF0250910003609162
:10390000010370910203411551056105710529F10B
:1039100080917A0290917B02A0917C02B0917D020D
:10392000840F951FA61FB71FA7019601281B390BEF
:103930004A0B5B0B57FD11C00E94E1186091C6064F
:103940007091C7068DE598E00E94CE188AE00E942B
:10395000B81880E090E00E94E9184091040150916D
:10396000050160910601709107014115510561053E
:103970007105B1F19091180E8091190E981749F0C8
:10398000C0927A02D0927B02E0927C02F0927D0299
:1039900027C080917A0290917B02A0917C02B09125
:1039A0007D02840F951FA61FB71F97018601081B74
:1039B000190B2A0B3B0B37FD13C05E9A8091FE0258
:1039C0008E7F8093FE025E9A8091FE028D7F8093AF
:1039D000FE02159A8091FE028B7F8093FE025E9A12
:1039E0008091F5049091F604A091F704B091F80449
:1039F000A7019601281B390B4A0B5B0B57FD2AC107
:103A00009091180E8091190E981791F0E091190E6F
:103A10003BE5E39FF0011124E557F84F6081809169
:103A2000190E9091180E981729F08F5F8F70F9CFAB
:103A300060911F0770E084E00E947AAF80916B056F
:103A4000882309F4FAC020903B0130903C0100919A
:103A50003D010F8310913E011E836091EA02709137
:103A6000EB026E5F7F4F072E000C880B990B0E94B4
:103A700088DB9101A8010E9481DB87FDDEC00091F7
:103A8000190E09831A821B821C821D828091180ED6
:103A90001981811709F460C0812F90E02BE5289FE0
:103AA000F001299FF00D1124EB5CF84F45895689F0
:103AB0006789708D452B462B472B81F4418D528DA4
:103AC000638D748D452B462B472B41F4458D568DC8
:103AD000678D70A1452B462B472BC9F13BE5389FDD
:103AE0008001399F100D11240B5C184FF801618182
:103AF0007281838194810E94C2E44B015C01F801D0
:103B000061A172A183A194A10E9486DB2B013C01DB
:103B1000F80165A176A187A190A50E9486DB9B0193
:103B2000AC01C301B2010E940EE3A50194010E9401
:103B3000E7DB5B018C012A813B814C815D810E9426
:103B400074E4181624F4AA82BB820C831D83898135
:103B50008F5F8F7089839ACF20913F013091400110
:103B600040914101509142016A817B818C819D810C
:103B70000E94E7DB91014F815E810E9414E25B01AC
:103B80008C019B01AC01B1018F819E810E9474E484
:103B90001816B4F02090370130903801F0913901B7
:103BA000FF8320913A012E8391014F2F5E81B50151
:103BB000C8010E9474E418161CF015010F831E83BF
:103BC0008090F1049090F204A090F304B090F4047B
:103BD00091014F815E81C501B4010E9474E4181601
:103BE000D4F420E037ED43EA5CE3B1018F819E819C
:103BF0000E94E7DB2B013C0128E431EE4AE75FE35A
:103C0000C501B4010E94E7DBA30192010E9414E206
:103C10001B018F839E83C101AF81BE818093F1041C
:103C20009093F204A093F304B093F404B101CD0196
:103C30000E9480E3CB010E9467B334E6C30ED11C1F
:103C4000E11CF11CC092F504D092F604E092F70456
:103C5000F092F8040E9431448091D902813009F039
:103C60006EC00E9426B06B017C018091FD04909192
:103C7000FE04A091FF04B091000597018601081B86
:103C8000190B2A0B3B0B37FD3AC08090B60D909074
:103C9000B70DA090B80DB090B90D0E94A83E6093EA
:103CA000B60D7093B70D8093B80D9093B90D009138
:103CB000DE021091DF022091E0023091E10208194A
:103CC00019092A093B09DC01CB01800F911FA21FB2
:103CD000B31F8093DE029093DF02A093E002B093C3
:103CE000E102D701C601805F984DAF4FBF4F80936F
:103CF000FD049093FE04A093FF04B093000580910F
:103D0000F9049091FA04A091FB04B091FC04A7017E
:103D10009601281B390B4A0B5B0B57FD10C030E88E
:103D2000C30E3EEED31EE11CF11CC092F904D092EA
:103D3000FA04E092FB04F092FC040E94A49A0E9410
:103D4000CE8A8091F902882309F447C00E9426B0E8
:103D50000091F5021091F6022091F7023091F802DD
:103D6000DC01CB01801B910BA20BB30BB7FD35C05F
:103D70000E9426B06B017C012091F90230E0A8EE90
:103D8000B3E00E9404E2C60ED71EE81EF91EC092E0
:103D9000F502D092F602E092F702F092F80280E08B
:103DA0000E940D3F8AE027960FB6F894DEBF0FBE43
:103DB000CDBFDF91CF911F910F91FF90EF90DF90DA
:103DC000CF90BF90AF909F908F907F906F905F90BB
:103DD0004F903F902F900C94B81827960FB6F894F8
:103DE000DEBF0FBECDBFDF91CF911F910F91FF902E
:103DF000EF90DF90CF90BF90AF909F908F907F908B
:103E00006F905F904F903F902F9008958F929F9268
:103E1000AF92BF92EF92FF920F931F93CF93DF93D6
:103E2000CDB7DEB7A0970FB6F894DEBF0FBECDBFFB
:103E3000611571058105910591F100E0842E912CA9
:103E4000A12CB12C102FEE24E394F12CEC0EFD1ECE
:103E5000E00EF11C07FDFA94A50194010E94D7E140
:103E6000F7016083B901CA010F5F61157105810512
:103E7000910541F71F3F31F1E1E0F0E0EC0FFD1F4C
:103E8000E10FF11D17FDFA9580818A3010F097E35C
:103E900001C090E3890F0E94B8181150EBCF80E366
:103EA000A0960FB6F894DEBF0FBECDBFDF91CF91C5
:103EB0001F910F91FF90EF90BF90AF909F908F90C8
:103EC0000C94B818A0960FB6F894DEBF0FBECDBF05
:103ED000DF91CF911F910F91FF90EF90BF90AF9026
:103EE0009F908F900895CF92DF92EF92FF926B0197
:103EF0007C0197FF0BC08DE20E94B818F094E0940B
:103F0000D094C094C11CD11CE11CF11C4AE0C70133
:103F1000B601FF90EF90DF90CF900C94061F8F9228
:103F20009F92AF92BF92CF92DF92EF92FF92CF9388
:103F30006B017C01B42E20E030E0A9010E9481DBFE
:103F400087FF07C08DE20E94B818F7FAF094F7F8DF
:103F5000F094C0E060E070E080E09FE3CB1541F0BA
:103F60002DEC3CEC4CEC5DE30E94E7DBCF5FF6CF41
:103F70009B01AC01C701B6010E9414E26B017C01F8
:103F80000E9487E34B015C014AE00E94061FCC239C
:103F900089F1C501B4010E9486DB9B01AC01C70118
:103FA000B6010E9413E26B017C018EE20E94B818F8
:103FB00020E030E040E251E4C701B6010E94E7DBB7
:103FC0004B015C010E9480E36B01770FEE08FF0854
:103FD000C701B6010E94731FC701B6010E9488DBAA
:103FE0009B01AC01C501B4010E9413E26B017C018D
:103FF000C150F1F6CF91FF90EF90DF90CF90BF903E
:10400000AF909F908F9008958DE00E94B8188AE03D
:104010000C94B8188091C3059091C405981759F075
:10402000E92FF0E0ED53FA4F82819F5F9F779093E5
:10403000C40590E008958FEF9FEF08951F920F92AF
:104040000FB60F9211240F900FBE0F901F9018956E
:104050001F920F920FB60F9211240BB60F922F934F
:104060008F939F93EF93FF932091C405E091C30535
:1040700081E08E0F8F779091C600281729F0F0E02D
:10408000ED53FA4F9283E82FE093C305FF91EF9130
:104090009F918F912F910F900BBE0F900FBE0F909D
:1040A0001F9018952F923F924F925F926F927F923E
:1040B0008F929F92AF92BF92CF92DF92EF92FF9238
:1040C0000F931F93CF93DF93CDB7DEB766970FB6ED
:1040D000F894DEBF0FBECDBF8FEF9FEF90938900A6
:1040E00080938800BAE0DB2E212C312C78948091CB
:1040F0004A0590914B05A0914C05B0914D05892B37
:104100008A2B8B2B09F0CCC18091C50F8823D1F06D
:104110001092C50F8091C30F9091C40F892B91F01D
:1041200010920A051092C40F1092C30F9091180EAE
:104130008091190E981731F08091190E8F5F8F7052
:104140008093190E8091C30F9091C40F892B09F4AD
:10415000A7C100914605109147052091480530916F
:1041600049058091420590914305A0914405B09185
:1041700045054091380550E060E070E0801B910BF0
:10418000A20BB30B481759076A077B0710F4DB0132
:10419000CA01482F800F911FA21FB31F80934605AD
:1041A00090934705A0934805B093490580918400FA
:1041B00090918500809680901F0590902005A0909A
:1041C0002105B090220500910F0510911005209156
:1041D000110530911205080D191D2A1D3B1D009374
:1041E0001F0510932005209321053093220537FDEC
:1041F0001CC05F9A0091A9021091AA022091AB0203
:104200003091AC0280900105082C000C9908AA0896
:10421000BB08080D191D2A1D3B1D0093A902109310
:10422000AA022093AB023093AC02809023059090B9
:104230002405A0902505B090260500911305109146
:1042400014052091150530911605080D191D2A1D1C
:104250003B1D0093230510932405209325053093DF
:10426000260537FD1CC0469A0091AD021091AE02A2
:104270002091AF023091B00280900205082C000C12
:104280009908AA08BB08080D191D2A1D3B1D00939B
:10429000AD021093AE022093AF023093B002809033
:1042A000270590902805A0902905B0902A05009137
:1042B0001705109118052091190530911A05080D60
:1042C000191D2A1D3B1D00932705109328052093D7
:1042D000290530932A0537FD1CC02B9A0091B102A5
:1042E0001091B2022091B3023091B4028090030584
:1042F000082C000C9908AA08BB08080D191D2A1DD6
:104300003B1D0093B1021093B2022093B30230938D
:10431000B40280902B0590902C05A0902D05B090B4
:104320002E0500911B0510911C0520911D05309153
:104330001E05080D191D2A1D3B1D00932B0510930A
:104340002C0520932D0530932E0537FD1CC0299A8E
:104350000091B5021091B6022091B7023091B802D7
:1043600080900405082C000C9908AA08BB08080DC9
:10437000191D2A1D3B1D0093B5021093B602209310
:10438000B7023093B802209184003091850028173D
:104390003907C8F300911F051091200520912105D0
:1043A0003091220537FD15C080900B0590900C05CB
:1043B000A0900D05B0900E05081919092A093B09AE
:1043C00000931F05109320052093210530932205AB
:1043D0005F980091230510912405209125053091C7
:1043E000260537FD15C080900B0590900C05A09018
:1043F0000D05B0900E05081919092A093B0900930B
:10440000230510932405209325053093260546980F
:1044100000912705109128052091290530912A0542
:1044200037FD15C080900B0590900C05A0900D05F0
:10443000B0900E05081919092A093B0900932705B0
:10444000109328052093290530932A052B98009175
:104450002B0510912C0520912D0530912E0537FD4F
:1044600015C080900B0590900C05A0900D05B090A4
:104470000E05081919092A093B0900932B05109309
:104480002C0520932D0530932E052998415041F09D
:10449000209184003091850028173907C8F38ACE0F
:1044A00080914A0590914B05A0914C05B0914D0526
:1044B000892B8A2B8B2B11F00C948128E091C30F50
:1044C000F091C40F309711F40C940F2A8091460597
:1044D00090914705A0914805B0914905409142054A
:1044E00050914305609144057091450584179507E7
:1044F000A607B707D8F010920A051092C40F1092C1
:10450000C30F9091180E8091190E981711F40C9406
:104510000F2A8091190E8F5F8F708093190EA0ED76
:104520008A2EA7E09A2EA12CB12CFBC340913E0508
:1045300050913F056091400570914105481759071A
:104540006A077B0708F4A3C140903A0550903B05E9
:1045500060903C0570903D0585A996A9A7A9B0ADCE
:10456000481659066A067B0608F074C141145104C6
:104570006104710449F48091060590910705A091AA
:104580000805B09109056AC1B0E0AC2D842D352D28
:10459000262DF981EA817B816C815D814E819F812D
:1045A0005091BA0D589F712D66274091BB0D489FC1
:1045B000700D611D1090BC0D189E600D539F700D05
:1045C000611D439F600D529F600DF72FE62FF79FEF
:1045D000512D44279927F69F500D411D9B1FE79FA2
:1045E000500D411D9B1FE69F400D911DF42FE92F9B
:1045F000F79FA12D44279927F69FA00D411D9B1FD2
:10460000E79FA00D411D9B1FE69F400D911DF42FBC
:10461000E92F55278091060530910705209108055F
:104620000090E9040B2A09F484C04091E5044F9FEF
:1046300051198B0B3B0B2B0B9091E6049F9F50194C
:1046400081093B0B2B0BA091E704AF9F8019310927
:104650002B0B4E9F501981093B0B2B0B9E9F8019F2
:1046600031092B0BAE9F30192109F79FA12D44274B
:104670009927F69FA00D411D9B1FE79FA00D411D8F
:104680009B1FE69F400D911DF42FE92F4091E104FF
:104690004F9F510D8B1F3B1F2B1F9091E2049F9F3B
:1046A000500D811D3B1F2B1FA091E304AF9F800D78
:1046B000311D2B1F4E9F500D811D3B1F2B1F9E9F99
:1046C000800D311D2B1FAE9F300D211DF79FA12D99
:1046D00044279927F69FA00D411D9B1FE79FA00D22
:1046E000411D9B1FE69F400D911DF42FE92F409126
:1046F000DD044F9F51198B0B3B0B2B0B9091DE046C
:104700009F9F501981093B0B2B0BA091DF04AF9F9A
:10471000801931092B0B4E9F501981093B0B2B0B34
:104720009E9F801931092B0BAE9F301921090C94E3
:104730001B244091E5044F9F510D8B1F3B1F2B1FE6
:104740009091E6049F9F500D811D3B1F2B1FA09150
:10475000E704AF9F800D311D2B1F4E9F500D811D13
:104760003B1F2B1F9E9F800D311D2B1FAE9F300DB9
:10477000211DF79FA12D44279927F69FA00D411DCC
:104780009B1FE79FA00D411D9B1FE69F400D911DA4
:10479000F42FE92F4091E1044F9F51198B0B3B0BF4
:1047A0002B0B9091E2049F9F501981093B0B2B0B1F
:1047B000A091E304AF9F801931092B0B4E9F501934
:1047C00081093B0B2B0B9E9F801931092B0BAE9F50
:1047D00030192109F79FA12D44279927F69FA00D95
:1047E000411D9B1FE79FA00D411D9B1FE69F400D94
:1047F000911DF42FE92F4091DD044F9F510D8B1F28
:104800003B1F2B1F9091DE049F9F500D811D3B1F6E
:104810002B1FA091DF04AF9F800D311D2B1F4E9FDA
:10482000500D811D3B1F2B1F9E9F800D311D2B1F87
:10483000AE9F300D211D1124CA2EF983EA837B839C
:104840006C835D834E839F8390E0932BA0E0B0E068
:10485000A22B04C081A992A9A3A9B4A900903905EB
:1048600004C0880F991FAA1FBB1F0A94D2F728E41F
:1048700032E141E0488BF901459155916591749180
:10488000481759076A077B0708F48AC497C4409100
:1048900034055091350560913605709137054817FC
:1048A00059076A077B0708F0C6C18091330581115B
:1048B0001FC0DF01AF5BBF4FED90FD900D911C91CC
:1048C00013971D962D913D914D915C9161A972A90F
:1048D00083A994A90E94939981E080933305E09184
:1048E000C30FF091C40F41A852A863A874A88BC14C
:1048F00080912F0590913005A0913105B09132053E
:1049000041AD52AD63AD74AD84179507A607B707E7
:1049100008F073C10097A105B10549F44090060560
:104920005090070560900805709009056CC150E033
:104930006885482E292F8A2FA985FA85EB857C85E5
:104940004D853E859F854091BA0D449DE12D772789
:104950003091BB0D349DE00D711D1090BC0D149C69
:10496000700D429FE00D711D329F700D489F700DBC
:10497000AE2FF72FAE9F412D33279927A79F400DCC
:10498000311D951FFE9F400D311D951FF79F300D66
:10499000911DA32FF92FAE9F612D33279927A79F34
:1049A000600D311D951FFE9F600D311D951FF79FF6
:1049B000300D911DA32FF92F44274090060520911B
:1049C0000705809108050090E904052A09F484C0D0
:1049D0003091E5043A9F4119450A250B850B9091CA
:1049E000E6049A9F40194108250B850B6091E70466
:1049F0006A9F40182109850B3F9F40194108250BEC
:104A0000850B9F9F40182109850B6F9F20198109F5
:104A1000AE9F612D33279927A79F600D311D951FEC
:104A2000FE9F600D311D951FF79F300D911DA32F27
:104A3000F92F3091E1043A9F410D451E251F851F36
:104A40009091E2049A9F400D411C251F851F6091A3
:104A5000E3046A9F400C211D851F3F9F400D411CB0
:104A6000251F851F9F9F400C211D851F6F9F200DB7
:104A7000811DAE9F612D33279927A79F600D311DA2
:104A8000951FFE9F600D311D951FF79F300D911DE5
:104A9000A32FF92F3091DD043A9F4119450A250BC8
:104AA000850B9091DE049A9F40194108250B850BD8
:104AB0006091DF046A9F40182109850B3F9F4019D0
:104AC0004108250B850B9F9F40182109850B6F9F7F
:104AD000201981090C94EE253091E5043A9F410D8F
:104AE000451E251F851F9091E6049A9F400D411C8D
:104AF000251F851F6091E7046A9F400C211D851FBB
:104B00003F9F400D411C251F851F9F9F400C211D6D
:104B1000851F6F9F200D811DAE9F612D3327992723
:104B2000A79F600D311D951FFE9F600D311D951FC4
:104B3000F79F300D911DA32FF92F3091E1043A9F7B
:104B40004119450A250B850B9091E2049A9F401963
:104B50004108250B850B6091E3046A9F40182109E9
:104B6000850B3F9F40194108250B850B9F9F4018DF
:104B70002109850B6F9F20198109AE9F612D332775
:104B80009927A79F600D311D951FFE9F600D311D58
:104B9000951FF79F300D911DA32FF92F3091DD0444
:104BA0003A9F410D451E251F851F9091DE049A9F57
:104BB000400D411C251F851F6091DF046A9F400C3A
:104BC000211D851F3F9F400D411C251F851F9F9F55
:104BD000400C211D851F6F9F200D811D11246887AA
:104BE000A987FA87EB877C874D873E879F87512C63
:104BF000522A612C712C682A06C0E25BFF4F40806C
:104C00005180628073800090390504C0440C551CAB
:104C1000661C771C0A94D2F788E492E121E0FC013B
:104C20004591559165917491441555056605770533
:104C300008F427C331C380911A0190911B01A09100
:104C40001C01B0911D01B7FF64C0EA5BFF4F80807B
:104C50009180A280B3800090390504C0880C991C13
:104C6000AA1CBB1C0A94D2F788E492E121E0FC0163
:104C70004591559165917491481559056A057B05D3
:104C800050F4B694A79497948794220F049632E137
:104C90008436930761F72093380520E28216910449
:104CA000A104B10408F48CC380E2881A9108A10819
:104CB000B108811498E09906A104B10408F45CC31A
:104CC000A4E09A9EC0011124885B914FFC013296AA
:104CD00025913491B82D6627B39FA001B29F410D55
:104CE000561F0694461F561F112460E070E0FC0119
:104CF00025913491C901A0E0B0E0841B950BA60B6F
:104D0000B70B80931A0190931B01A0931C01B093E1
:104D10001D0180901A0190901B01A0901C01B09081
:104D20001D018091C30F9091C40F892B09F0E1C13F
:104D30000E94129A9093C40F8093C30F892B09F499
:104D4000D8C1E091C30FF091C40F808183FF3EC0B2
:104D500085899689A789B08D8093A9029093AA022C
:104D6000A093AB02B093AC02818D928DA38DB48DD4
:104D70008093AD029093AE02A093AF02B093B002C5
:104D8000858D968DA78DB0A18093B1029093B202CC
:104D9000A093B302B093B40281A192A1A3A1B4A144
:104DA0008093B5029093B602A093B702B093B80275
:104DB0009091180E8091190E981709F4B9CF80912F
:104DC000190E8F5F8F708093190EB2CF85889688E9
:104DD000A788B08C81E081149104A104B10409F486
:104DE00080E0218D328D438D548D2B8B3C8B4D8BF0
:104DF0005E8B232B242B252B09F08260458D568D4D
:104E0000678D70A1411551056105710509F0846038
:104E100080930A0510922F051092300510923105EB
:104E20001092320510923A0510923B0510923C0503
:104E300010923D05DF01AA5BBF4F8D919D910D90B2
:104E4000BC91A02DF12C893330E39307A105B10566
:104E500060F4880F991FAA1FBB1F893320E39207B4
:104E6000A105B10510F4F394EECFF09239058F2D22
:104E700090E09A8B898B85A196A1A7A1B0A50F2C54
:104E800004C0880F991FAA1FBB1F0A94D2F78093F2
:104E9000420590934305A0934405B09345054424EF
:104EA00055243201481A590A6A0A7B0A40922B0596
:104EB00050922C0560922D0570922E054092270588
:104EC000509228056092290570922A054092230588
:104ED00050922405609225057092260540921F0588
:104EE000509220056092210570922205880C991C31
:104EF000AA1CBB1C80920F0590921005A092110570
:104F0000B09212050B891C892D893E89000F111F53
:104F1000221F331F009313051093140520931505CA
:104F200030931605440F551F661F771F40931705D2
:104F3000509318056093190570931A0541A152A169
:104F400063A174A1440F551F661F771F40931B0573
:104F500050931C0560931D0570931E05880F991FC3
:104F6000AA1FBB1F80930B0590930C05A0930D0502
:104F7000B0930E0510924605109247051092480511
:104F80001092490581A592A5A3A5B4A50F2C04C034
:104F9000880F991FAA1FBB1F0A94D2F780933E0562
:104FA00090933F05A0934005B093410585A596A534
:104FB000A7A5B0A904C0880F991FAA1FBB1FFA9408
:104FC000D2F78093340590933505A0933605B093BE
:104FD0003705EB5BFF4F808190910505891721F024
:104FE000809305050E94E5998091040381110E9438
:104FF000A17E2FEF3FEFA90120931A0130931B01EF
:1050000040931C0150931D01E091C30FF091C40F18
:10501000DF01DD96ED90FD900D911C9121A932A943
:1050200043A954A9E65BFF4F60817181828193811E
:105030000E94939910923305E091C30FF091C40F31
:10504000E65BFF4F4080518062807380098804C016
:10505000440C551C661C771C0A94D2F788E492E134
:1050600021E0FC01459155916591749144155505D8
:105070006605770558F47694679457944794220F01
:10508000049644E652E14817590759F7209338052A
:1050900050E2451651046104710408F4BAC130E2CB
:1050A000431A510861087108411448E0540661042C
:1050B000710408F48BC154E0559EC0011124885B33
:1050C000914FFC01329625913491742D6627739F80
:1050D000A001729F410D561F0694461F561F1124B2
:1050E000FC0185909490A12CB12C841A950AA108FA
:1050F000B10880924A0590924B05A0924C05B0925F
:105100004D0580914A0590914B05A0914C05B091B9
:105110004D05AC01BD01009721E0A207B10520F0CB
:105120004FEF5FEF60E070E0841B950BA60BB70BB1
:1051300080934A0590934B05A0934C05B0934D0581
:10514000F89480918400909185004096DA94DD2057
:1051500041F0240E351E2816390610F40C947620E2
:1051600001C01C01309289002092880078946696D4
:105170000FB6F894DEBF0FBECDBFDF91CF911F9168
:105180000F91FF90EF90DF90CF90BF90AF909F90E6
:105190008F907F906F905F904F903F902F900895E9
:1051A000B695A795979587954889440F488B2C5FAE
:1051B0003F4F52E12436350709F05DCB7889709373
:1051C000380580329105A105B10508F455C08097D6
:1051D000A109B109811558E09507A105B105F0F0C5
:1051E00074E0979F90011124285B314FF9013296AA
:1051F00045915491EE27859FB001849F610D7E1FDC
:1052000006946E1F7E1F1124F90185909490A12CA5
:10521000B12C861A970AA108B10821C0AC01BD01C2
:105220007695679557954795FA01EC7F9F01285B26
:10523000354FF90185909490F9013296459154913A
:105240008770849F9001859F300D1124F3E036957F
:105250002795FA95E1F7821A930AA12CB12C480CF4
:10526000591C6A1C7B1C40923A0550923B05609287
:105270003C0570923D0555CD80E290E0A0E0B0E0A5
:10528000A6CF7694679457944794220F0496A2E190
:1052900084369A0709F0C3CC20933805B0E24B1648
:1052A00051046104710408F461C090E2491A510884
:1052B000610871084114A8E05A0661047104F8F00D
:1052C000B4E05B9EC0011124885B914FFC013296D3
:1052D00025913491742D6627739FA001729F410D13
:1052E000561F0694461F561F1124FC01859094906A
:1052F000A12CB12C841A950AA108B10822C0D301AF
:10530000C201B695A79597958795FC01EC7FCF01D3
:10531000885B954FFC0185909490FC013296259115
:105320003491442D4770429FC001439F900D11243A
:1053300063E0969587956A95E1F7881A990AA12CFA
:10534000B12C80912F0590913005A0913105B0913D
:105350003205880D991DAA1DBB1D80932F059093C2
:105360003005A0933105B0933205DBCC60E2462EC8
:10537000512C612C712C99CFD501C401B695A795FC
:1053800097958795FC01EC7FCF01885B954FFC01D9
:1053900025913491FC01329645915491682D6770A6
:1053A000649FC001659F900D112443E096958795F9
:1053B0004A95E1F7281B390BC901A0E0B0E0A1CC68
:1053C00050E2852E912CA12CB12C6ECCD301C201C0
:1053D000B695A79597958795FC01EC7FCF01885BE3
:1053E000954FFC0185909490FC0132962591349163
:1053F000442D4770429FC001439F900D1124A3E0AC
:1054000096958795AA95E1F7881A990AA12CB12C4F
:1054100070CE90E2492E512C612C712C40CE80ED43
:10542000882E87E0982EA12CB12C82CC0E94B8182F
:105430008FED92E10C94BF1880E1E1E0FEE0A5EC75
:10544000B2E001900D928A95E1F708958091C1052F
:105450009091C205009731F04AE050E060E070E0C2
:105460000C9482D860E070E0CB0108950E94262A57
:1054700097FD0CC00E94262A6F3F7105810591059A
:1054800009F034F40E94262A862F089580E00895BA
:105490008FEF08958091C1059091C205892B39F055
:1054A0000E94362A91E0811103C090E001C091E092
:1054B000892F08950E94262ACB0108950F931F93E8
:1054C000CF938091C1059091C205009711F1FC0125
:1054D0008F01C1912C2F2F7DA9F0C53411F0C53655
:1054E000B9F7F801108260E070E08091C1059091F9
:1054F000C2050E9426D7F801C083562F472F382FA8
:10550000292F0BC060E070E0CF911F910F910C9498
:1055100026D750E040E030E020E0652F742F832F45
:10552000922FCF911F910F91089581548A3108F0E5
:1055300042C0E82FF0E040911403509115036091B0
:1055400016037091170304C0769567955795479594
:105550008A95D2F7842F817040FF2FC0E05AFD4F0B
:105560009081992309F1E091C606F091C706E90FF1
:10557000F11D908120ED290F2A3098F09E3211F410
:1055800091810CC09D3211F09B3271F4918120ED1C
:10559000290F2A3030F09E3239F4928190539A309C
:1055A00018F42E2F9F2F02C020E090E02093C10519
:1055B0009093C205089580E008950895CF92DF92F8
:1055C000EF92FF920F931F93CF93DF9388E50E9492
:1055D000952AD82E89E40E94952AC82E882321F086
:1055E0000E945A2A182F27C0DD2011F10E945E2A3E
:1055F00020912403309125034091260350912703E5
:105600000E9413E220E030E040E251E40E9413E205
:1056100020E030E044E352E40E9414E221E63BE063
:1056200046E35CE30E94E7DB0E9480E3633010F016
:105630001FEF01C0162F89E50E94952AF82E8AE4F3
:105640000E94952AC82F882321F00E945A2AD82F19
:1056500027C0FF2011F10E945E2A2091280330917B
:10566000290340912A0350912B030E9413E220E06A
:1056700030E040E251E40E9413E220E030E044E3F5
:1056800052E40E9414E221E63BE046E35CE30E9420
:10569000E7DB0E9480E3633010F0DFEF01C0D62F1C
:1056A0008AE50E94952AE82E811105C081E50E94B5
:1056B000952A082F01C000E0C11001C0C0E02C2FC6
:1056C00030E0D11001C0F12C2F0D311D21303105FA
:1056D00021F4E11007C0011105C00E94E1188DE01E
:1056E00093E108C017FD02C0D7FF0EC00E94E11869
:1056F0008EEE92E1DF91CF911F910F91FF90EF908D
:10570000DF90CF900C94BF180E945E2A9B01AC01E1
:10571000E12E110FFF08AD2FDD0FBB0B002391F021
:10572000F701EE0FFF1FEE0DFF1DEA0FFB1FEE0F3F
:10573000FF1FEE0FFF1FEC57FD4F608171818281CB
:10574000938103C060E070E0CB01E701CC0FDD1F67
:10575000CE0DDF1DCA0FDB1FCC0FDD1FCC0FDD1FF1
:10576000CC57DD4F0E9414E2688379838A839B8340
:10577000DF91CF911F910F91FF90EF90DF90CF902D
:1057800008950E94952A882341F081E02091C10567
:105790003091C205232B09F480E008958F929F92E7
:1057A000AF92BF92CF92DF92EF92FF920F931F932F
:1057B000CF93DF93C1E3D2E08991882319F00E944F
:1057C000B818FACF609180027091810280918202B4
:1057D0009091830245E00E948F1F88E692E10E942B
:1057E000BF18C12CD12C7601C9E0C15021F080E254
:1057F0000E94B818FACFC701B6010E94731F8FEF3D
:10580000C81AD80AE80AF80A93E0C916D104E104D4
:10581000F10451F78AE00E94B81804E812E0C12CA4
:10582000D12C760180E20E94B818C701B6010E940F
:10583000731FC0E0D0E080E20E94B818F801EC0FBE
:10584000FD1F80809180A280B380A5019401C501D5
:10585000B4010E9406E5811112C020E030E0A901E8
:10586000C501B4010E9474E487FD03C08BE20E946D
:10587000B81845E0C501B4010E948F1F09C0B12CC2
:1058800080E20E94B818B3948DE398E0B912F9CF82
:105890002C96C432D10579F68AE00E94B8188FEFB1
:1058A000C81AD80AE80AF80A0C5F1F4F93E0C91615
:1058B000D104E104F10409F0B5CF8AE0DF91CF9182
:1058C0001F910F91FF90EF90DF90CF90BF90AF901E
:1058D0009F908F900C94B8181092800210928102C1
:1058E000109282021092830284E2E4E8F2E0DF0187
:1058F0001D928A95E9F708959091000E9817D1F0BE
:105900000E94CA9D8091000E882359F049E05EE014
:1059100065E07EE081E09EE00E94969B1092000E82
:1059200007C081E08093000E81E09EE00E94669BAC
:105930000C941D7D08958F929F92AF92BF92DF923B
:10594000EF92FF920F931F93CF93DF9300D000D07D
:10595000CDB7DEB7182F8FE40E94D46C882331F0C6
:105960008091380D8770873009F4C9C00E94CA9DA4
:10597000D090000E80E00E947C2C809126019091B6
:105980002701A0912801B091290180935805909397
:105990005905A0935A05B0935B058091150190912C
:1059A0001601909357058093560584E690E09093F6
:1059B00016018093150181E0809304030E941A7FF1
:1059C000111119C088E50E94952AF82E89E50E94D8
:1059D000952A082F8AE50E94952AE82EF11006C024
:1059E000011110C081110FC0F02E0AC0002351F028
:1059F000F02E182F08C0FF24F39401E0EE24E39466
:105A000011E001C010E00E941C2A82E50E94C12B17
:105A1000882361F00E945E2A4B015C0120E030E0A7
:105A2000A9010E9481DB882371F106C0812C912C91
:105A300080EAA82E80E4B82E111104C0F11002C033
:105A4000002391F18092CD029092CE02A092CF02DB
:105A5000B092D002A50194016091090E70910A0ED6
:105A600080910B0E90910C0E0E9481DB87FF0BC082
:105A700019821A821B821C82BE016F5F7F4F8DECE0
:105A800092E00E94ADAB111105C0F11003C00111ED
:105A900006C00AC080E00E941F7D1123C1F381E08F
:105AA0000E941F7D111102C0EE2019F082E00E94B9
:105AB0001F7D0E941D7D80910303809304038D2D23
:105AC0000E947C2C8091580590915905A0915A050F
:105AD000B0915B058093260190932701A093280144
